:020000040800F2
:10000000E02A002069370008A1290008A329000878
:10001000A5290008A7290008A92900080000000058
:10002000000000000000000000000000AB290008F4
:10003000AD29000800000000AF290008A92A000827
:1000400085370008893700088D3700089137000888
:1000500095370008993700089D370008A137000838
:10006000A5370008A9370008AD370008B1370008E8
:10007000B5370008B9370008BD370008C137000898
:10008000C5370008C9370008CD370008D137000848
:10009000D5370008D9370008DD370008E1370008F8
:1000A000E5370008E9370008ED370008F1370008A8
:1000B000B1290008F5370008F9370008FD370008B6
:1000C0000138000805380008093800080D38000814
:1000D000113800081538000819380008212A0008CE
:1000E0001D38000821380008253800082938000884
:1000F0002D38000870B504000D0025700C4801F083
:10010000B6F8607000200600F6B2EDB2681C8642B8
:100110000DDAF6B2315D89B2064801F09FF940214F
:10012000044801F0DCF90028F9D0761CECE770BD3A
:100130000000080800480040F0B5C1B000A84FF426
:10014000807101F02BFADFF8AC0A0078002801F08A
:100150006C80DFF8A40A04002078012833D160788D
:100160008DF8020001208DF80300A0788DF80400BE
:10017000042100A801F079FB01F099FB00A801F02F
:100180009BFB002810D020788DF802009DF8040019
:100190008DF803009DF805008DF80400042100A8E7
:1001A000FFF7A8FF01F03BB820788DF8020065202A
:1001B0008DF8030072208DF80400042100A8FFF7D9
:1001C00099FF01F02CB82078022833D160788DF89F
:1001D000020002208DF80300A0788DF804000421AD
:1001E00000A801F042FB01F062FB00A801F064FBF3
:1001F000002810D020788DF802009DF804008DF8BA
:1002000003009DF805008DF80400042100A8FFF705
:1002100071FF01F004B820788DF8020065208DF898
:10022000030072208DF80400042100A8FFF762FF8C
:1002300000F0F5BF2078032831D160788DF80200F6
:1002400003208DF80300A0788DF80400042100A895
:1002500001F00BFB01F02BFB00A801F02DFB0028A7
:100260000ED020788DF802006F208DF803006B20EF
:100270008DF80400042100A8FFF73CFF00F0CFBF79
:1002800020788DF8020065208DF8030072208DF82B
:100290000400042100A8FFF72DFF00F0C0BF207864
:1002A00004283AD160788DF8020004208DF803000C
:1002B000A0788DF80400E0788DF8050020798DF89D
:1002C000060060798DF80700072100A801F0CDFA3B
:1002D00001F0EDFA00A801F0EFFA00280ED0207826
:1002E0008DF802006F208DF803006B208DF804005C
:1002F000042100A8FFF7FEFE00F091BF20788DF8E2
:10030000020065208DF8030072208DF8040004219E
:1003100000A8FFF7EFFE00F082BF207805283AD151
:1003200060788DF8020005208DF80300A0788DF824
:100330000400E0788DF8050020798DF806006079DA
:100340008DF80700072100A801F08FFA01F0AFFA3D
:1003500000A801F0B1FA00280ED020788DF8020034
:100360006F208DF803006B208DF80400042100A895
:10037000FFF7C0FE00F053BF20788DF80200652023
:100380008DF8030072208DF80400042100A8FFF707
:10039000B1FE00F044BF2078062831D160788DF896
:1003A000020006208DF80300A0788DF804000421D7
:1003B00000A801F05AFA01F07AFA00A801F07CFADC
:1003C00000280ED020788DF802006F208DF80300F1
:1003D0006B208DF80400042100A8FFF78BFE00F0CD
:1003E0001EBF20788DF8020065208DF80300722072
:1003F0008DF80400042100A8FFF77CFE00F00FBF79
:100400002078072831D160788DF8020007208DF818
:100410000300A0788DF80400042100A801F025FA5B
:1004200001F045FA00A801F047FA00280ED0207824
:100430008DF802006F208DF803006B208DF804000A
:10044000042100A8FFF756FE00F0E9BE20788DF8E1
:10045000020065208DF8030072208DF8040004214D
:1004600000A8FFF747FE00F0DABE207808283AD14E
:1004700060788DF8020008208DF80300A0788DF8D0
:100480000400E0788DF8050020798DF80600607989
:100490008DF80700072100A801F0E7F901F007FA3D
:1004A00000A801F009FA00280ED020788DF802008B
:1004B0006F208DF803006B208DF80400042100A844
:1004C000FFF718FE00F0ABBE20788DF80200652023
:1004D0008DF8030072208DF80400042100A8FFF7B6
:1004E00009FE00F09CBE2078092834D160788DF890
:1004F000020009208DF80300A0788DF80400E07850
:100500008DF80500052100A801F0AFF901F0CFF941
:1005100000A801F0D1F900280ED020788DF8020053
:100520006F208DF803006B208DF80400042100A8D3
:10053000FFF7E0FD00F073BE20788DF80200652023
:100540008DF8030072208DF80400042100A8FFF745
:10055000D1FD00F064BE2078102840F087806078DC
:100560008DF8020010208DF80300A0788DF80400AB
:10057000002007009DF80400FFB2874249D2FFB275
:1005800014EBC700C07800A9FFB211EBC701487196
:10059000FFB214EBC700007900A9FFB211EBC7014D
:1005A0008871FFB214EBC700407900A9FFB211EBCC
:1005B000C701C871FFB214EBC700807900A9FFB270
:1005C00011EBC7010872FFB214EBC700C07900A994
:1005D000FFB211EBC7014872FFB214EBC700007AFB
:1005E00000A9FFB211EBC7018872FFB214EBC7007C
:1005F000407A00A9FFB211EBC701C872FFB214EB39
:10060000C700807A00A9FFB211EBC70108737F1CF5
:10061000B0E79DF80400C000011DC9B200A801F0B8
:1006200024F901F044F900A801F046F900280ED0A1
:1006300020788DF802006F208DF803006B208DF874
:100640000400042100A8FFF755FD00F0E8BD207864
:100650008DF8020065208DF8030072208DF80400EB
:10066000042100A8FFF746FD00F0D9BD207811282D
:1006700043D100200700DFF8B80BFFB2385C617887
:10068000884207D0DFF8AC0B0078FFB2874201D276
:100690007F1CF0E7DFF89C0B0078FFB287420ED199
:1006A00020788DF8020065208DF8030072208DF807
:1006B0000400042100A8FFF71DFD00F0B0BD0020DC
:1006C000A17881420ADBDFF8701BFFB21E2202FB19
:1006D0000711021992784254401CF1E720788DF8F6
:1006E00002006F208DF803006B208DF804000421B8
:1006F00000A8FFF7FFFC00F092BD2078122831D14E
:1007000060788DF8020012208DF80300A0788DF833
:100710000400042100A801F0A8F801F0C8F800A81E
:1007200001F0CAF800280ED020788DF802006F2062
:100730008DF803006B208DF80400042100A8FFF75A
:10074000D9FC00F06CBD20788DF8020065208DF892
:10075000030072208DF80400042100A8FFF7CAFCF2
:1007600000F05DBD207813282ED160788DF802004E
:1007700013208DF80300032100A801F076F801F0A2
:1007800096F800A801F098F800280ED020788DF88F
:1007900002006F208DF803006B208DF80400042107
:1007A00000A8FFF7A7FC00F03ABD20788DF8020002
:1007B00065208DF8030072208DF80400042100A844
:1007C000FFF798FC00F02BBD207815283AD160780F
:1007D0008DF8020015208DF80300A0788DF8040034
:1007E000E0788DF8050020798DF8060060798DF8A5
:1007F0000700072100A801F038F801F058F800A818
:1008000001F05AF800280ED020788DF802006F20F1
:100810008DF803006B208DF80400042100A8FFF779
:1008200069FC00F0FCBC20788DF8020065208DF892
:10083000030072208DF80400042100A8FFF75AFC81
:1008400000F0EDBC207818283AD160788DF80200CD
:1008500018208DF80300A0788DF80400E0788DF85A
:10086000050020798DF8060060798DF807000721D2
:1008700000A800F0FAFF01F01AF800A801F01CF837
:1008800000280ED020788DF802006F208DF803002C
:100890006B208DF80400042100A8FFF72BFC00F06A
:1008A000BEBC20788DF8020065208DF80300722010
:1008B0008DF80400042100A8FFF71CFC00F0AFBC79
:1008C0002078192834D160788DF8020019208DF82D
:1008D0000300A0788DF80400E0788DF8050005216C
:1008E00000A800F0C2FF00F0E2FF00A800F0E4FF63
:1008F00000280ED020788DF802006F208DF80300BC
:100900006B208DF80400042100A8FFF7F3FB00F032
:1009100086BC20788DF8020065208DF803007220D7
:100920008DF80400042100A8FFF7E4FB00F077BC79
:100930002078202840F0888060788DF80200202000
:100940008DF80300032100A800F08FFF00F0AFFF37
:1009500000A800F0B1FF002868D020788DF80200D0
:100960009DF804008DF80300002007009DF80300A7
:10097000FFB2874251D200A8FFB210EBC700407906
:1009800000A9FFB211EBC701087100A8FFB210EB7C
:10099000C700807900A9FFB211EBC701487100A818
:1009A000FFB210EBC700C07900A9FFB211EBC7017D
:1009B000887100A8FFB210EBC700007A00A9FFB24F
:1009C00011EBC701C87100A8FFB210EBC700407A55
:1009D00000A9FFB211EBC701087200A8FFB210EB2B
:1009E000C700807A00A9FFB211EBC701487200A8C6
:1009F000FFB210EBC700C07A00A9FFB211EBC7012C
:100A0000887200A8FFB210EBC700007B00A9FFB2FC
:100A100011EBC701C8727F1CA8E79DF80300C00056
:100A2000C11CC9B200A8FFF765FBF8E320788DF878
:100A3000020065208DF8030072208DF80400042167
:100A400000A8FFF757FBEAE3207821286ED10020A9
:100A50000700DFF8DC07FFB2385C6178884207D016
:100A6000DFF8D0070078FFB2874201D27F1CF0E7A1
:100A7000DFF8C0070078FFB287420DD120788DF8EB
:100A8000020065208DF8030072208DF80400042117
:100A900000A8FFF72FFBC2E320788DF802000020AA
:100AA000DFF89817FFB2795C884234DADFF89017E4
:100AB000FFB2782202FB071151F82010090E00AA9C
:100AC00012EB8002D170DFF87817FFB2782202FBB8
:100AD000071151F82010090C00AA12EB80021171C5
:100AE000DFF85C17FFB2782202FB071151F82010E3
:100AF000090A00AA12EB80025171DFF84417FFB215
:100B0000782202FB071151F8201000AA12EB800294
:100B10009171401CC4E7DFF82407FFB2385C800005
:100B2000811CC9B200A8FFF7E5FA78E320782228F3
:100B300069D100200700DFF8F806FFB2385C617861
:100B4000884207D0DFF8EC060078FFB2874201D276
:100B50007F1CF0E7DFF8DC060078FFB287420DD19A
:100B600020788DF8020065208DF8030072208DF842
:100B70000400042100A8FFF7BDFA50E320788DF8A7
:100B8000020000201F2839DADFF8B816FFB2A022D1
:100B900002FB071151F82010090E00AA12EB800287
:100BA000D170DFF8A016FFB2A02202FB071151F8A6
:100BB0002010090C00AA12EB80021171DFF88416D4
:100BC000FFB2A02202FB071151F82010090A00AA67
:100BD00012EB80025171DFF86C16FFB2A02202FB0B
:100BE000071151F8201000AA12EB80029171401CED
:100BF000C8E700BFDC2600204A2500207E2100A88F
:100C0000FFF778FA0BE32078242836D160788DF846
:100C1000020024208DF80300032100A800F025FE27
:100C200000F045FE00A800F047FE002817D020780D
:100C30008DF802009DF804008DF803009DF8050072
:100C40008DF804009DF806008DF805009DF807005A
:100C50008DF80600062100A8FFF74CFADFE22078A5
:100C60008DF8020065208DF8030072208DF80400D5
:100C7000042100A8FFF73EFAD1E22078312836D1CE
:100C800060788DF8020031208DF80300032100A860
:100C900000F0EBFD00F00BFE00A800F00DFE0028B8
:100CA00017D020788DF802009DF804008DF803001D
:100CB0009DF805008DF804009DF806008DF80500EC
:100CC0009DF807008DF80600062100A8FFF712FA2C
:100CD000A5E220788DF8020065208DF803007220CF
:100CE0008DF80400042100A8FFF704FA97E22078A9
:100CF00032282DD160788DF8020032208DF8030063
:100D0000A0788DF80400042100A800F0AEFD00F0EA
:100D1000CEFD00A800F0D0FD00280BD020788DF883
:100D20000200A0788DF803009DF8001000A8FFF7DE
:100D3000E1F974E220788DF8020065208DF8030057
:100D400072208DF80400042100A8FFF7D3F966E2B1
:100D5000207833282CD160788DF8020033208DF86C
:100D60000300A0788DF80400042100A800F07DFDA8
:100D700000F09DFD00A800F09FFD00280AD020781B
:100D80008DF80200A0788DF803007F2100A8FFF7FE
:100D9000B1F944E220788DF8020065208DF8030057
:100DA00072208DF80400042100A8FFF7A3F936E2B1
:100DB0002078412846D160788DF8020041208DF8D6
:100DC0000300032100A800F050FD00F070FD00A812
:100DD00000F072FD002827D042F6717000F082FC0E
:100DE0000001060042F6727000F07CFCC0B2C00840
:100DF0000700FFB217F00F00064320788DF80200BD
:100E00009DF804008DF803009DF805008DF804009E
:100E1000B6B2300A8DF8050030008DF806000621C4
:100E200000A8FFF767F9FAE120788DF80200652045
:100E30008DF8030072208DF80400042100A8FFF74C
:100E400059F9ECE1207842283DD160788DF8020014
:100E500042208DF80300A0788DF80400042100A83A
:100E600000F003FD00F023FD00A800F025FD0028A0
:100E70001BD020788DF802006F208DF803006B20C6
:100E80008DF80400042100A8FFF734F9A078400091
:100E900010F12101C9B2142000F0A3FD00F007FCFD
:100EA00000F02CFC00F003FDB9E120788DF8020081
:100EB00065208DF8030072208DF80400042100A83D
:100EC000FFF718F9ABE12078432839D160788DF825
:100ED000020043208DF80300A0788DF8040004215F
:100EE00000A800F0C2FC00F0E2FC00A800F0E4FC66
:100EF000002817D020788DF802006F208DF80300AD
:100F00006B208DF80400042100A8FFF7F3F8A17806
:100F10000A2000F066FD00F0CAFB00F0EFFB00F0D5
:100F2000C6FC7CE120788DF8020065208DF8030076
:100F300072208DF80400042100A8FFF7DBF86EE1B1
:100F40002078442862D160788DF8020044208DF822
:100F50000300A0788DF80400042100A800F085FCAF
:100F600000F0A5FC00A800F0A7FC002840D02078E5
:100F70008DF802006F208DF803006B208DF80400BF
:100F8000042100A8FFF7B6F8A078012803D10321B7
:100F9000052000F026FDA078022803D10B210520B2
:100FA00000F01FFDA078032803D12321052000F0C5
:100FB00018FDA078042803D12B21052000F011FD95
:100FC000A078022190FBF1F202FB1102002A04D06A
:100FD0000B21042000F005FD03E00821042000F0AF
:100FE00000FD00F064FB00F089FB00F060FC16E1FE
:100FF00020788DF8020065208DF8030072208DF8AE
:101000000400042100A8FFF775F808E120784528BE
:101010002FD160788DF8020045208DF80300A0786C
:101020008DF80400042100A800F01FFC00F03FFC34
:1010300000A800F041FC00280DD020788DF80200B7
:101040006F208DF803006B208DF80400042100A8A8
:10105000FFF750F8E3E020788DF8020065208DF866
:10106000030072208DF80400042100A8FFF742F865
:10107000D5E02078812811D16178734800F0EAF832
:1010800020788DF802006F208DF803006B208DF81A
:101090000400042100A8FFF72DF8C0E02078832881
:1010A00016D1607800F08DFDA07800F097FDE07813
:1010B00000F0A1FD20788DF802006F208DF803006C
:1010C0006B208DF80400042100A8FFF713F8A6E0B8
:1010D0002078932813D120788DF8020000F0E9FDE4
:1010E0008DF8030000F0EDFD8DF8040000F0F1FD37
:1010F0008DF80500052100A8FEF7FCFF8FE02078A1
:10110000F1282CD160788DF80200F1208DF80300D1
:10111000032100A800F0A9FB00F0C9FB00A800F023
:10112000CBFB00280DD020788DF802006F208DF8C1
:1011300003006B208DF80400042100A8FEF7DAFFFD
:101140006DE020788DF8020065208DF80300722094
:101150008DF80400042100A8FEF7CCFF5FE02078A2
:10116000922816D100F0A9FE050020788DF8020023
:10117000280E8DF80300280C8DF80400280A8DF83D
:10118000050028008DF80600062100A8FEF7B2FF32
:1011900045E0207884281BD16078A178090451EAC1
:1011A0000060E17850EA0120217908430500280019
:1011B00000F07BFC20788DF802006F208DF8030092
:1011C0006B208DF80400042100A8FEF793FF26E0B1
:1011D0002078942816D100F01BFD050020788DF8AA
:1011E0000200280E8DF80300280C8DF80400280A50
:1011F0008DF8050028008DF80600062100A8FEF7EE
:1012000079FF0CE020788DF8020065208DF803004E
:1012100063208DF80400042100A8FEF76BFF002076
:101220000A49087000200A49087041B0F0BD00006A
:1012300048260020DA260020C4210020682600204D
:10124000B4130020F400002000000808DB26002072
:10125000DC26002038B504000D0000F041FF41F607
:10126000027000F056FF256000F04AFF31BD0068B3
:10127000704750F8041B61B150F8042BD30744BFEA
:10128000A9F101039A180023091F42F8043BFAD17F
:10129000EFE7704710B504005C4884420AD1012191
:1012A0004FF4804001F01DF800214FF4804001F020
:1012B00018F836E0564884420AD101215FF4003024
:1012C00001F01EF800215FF4003001F019F828E069
:1012D000504884420AD101215FF4802001F010F8C7
:1012E00000215FF4802001F00BF81AE04A488442A4
:1012F0000AD101215FF4002001F002F800215FF41F
:10130000002000F0FDFF0CE04448844209D1012197
:101310005FF4801000F0F4FF00215FF4801000F013
:10132000EFFF10BD2DE9F04385B004000D005FF024
:101330000009002600275FF00008A8890028208AFD
:10134000814639F44059E88850EA0909A4F8109018
:10135000A0898146324810EA0909A88829890843EA
:101360006989084350EA0909A4F80C90A08A8146CB
:1013700039F44079A88950EA0909A4F8149000A822
:1013800000F0DCFE2148844202D10398060001E00F
:1013900002980600A089000408D5192000FB06F079
:1013A00029684900B0FBF1F0070007E0192000FBB5
:1013B00006F029688900B0FBF1F007006420B7FB54
:1013C000F0F0000181465FEA1910642101FB107002
:1013D0008046A08900040AD55FEAC8003230642143
:1013E000B0FBF1F010F0070050EA090909E05FEAEC
:1013F000081032306421B0FBF1F010F00F0050EA19
:101400000909A4F8089005B0BDE8F0830038014050
:101410000044004000480040004C004000500040A4
:10142000F3E9FFFF4FF41651016000218180002194
:10143000C180002101810C214181002181817047FF
:10144000C9B2002904D0828952F40052828104E09A
:1014500082894DF6FF731A4082817047CA05D20D0A
:10146000828070478088C005C00D7047C9B20029CE
:1014700004D0828A52F00802828204E0828A4FF607
:10148000F7731A4082827047F0B4002300240025CD
:10149000002689B240F66A17B94206000F00FFB273
:1014A0007F09FFB23B0089B211F01F073C00012702
:1014B000A7403D00012B01D10C3604E0022B01D1E5
:1014C000103600E01436D2B2002A03D037682F431A
:1014D000376002E03768AF433760F0BC7047020006
:1014E000002089B2B1F5007F13880B4202D001239E
:1014F000180001E000231800C0B2704789B28A05C5
:1015000089B2CA430280704770B4020000230025EC
:101510000024002089B240F66A16B1420E00F6B2ED
:101520007609F6B2340089B211F01F0635000126A3
:1015300016FA05F5012C02D19689354006E0022CF9
:1015400002D1168A354001E0968A354089B20E0AEA
:10155000B6B23300012616FA03F316883340002D85
:1015600004D0002B02D00126300001E0002630001C
:10157000C0B270BC704710B40022002389B240F69C
:101580006A14A14289B20C0A22000124944023006B
:101590009BB2DC43048010BC70470000002200F0C6
:1015A000FFBE000000B583B00121012000F07BFEEA
:1015B00001208DF8040000208DF80600B020009076
:1015C00000208DF8070003208DF8050000A9DFF842
:1015D000200400F0FFFE00208DF8040000208DF8AC
:1015E00006004120009001208DF8070000A9DFF8D7
:1015F000000400F0EFFE1021DFF8F40300F049FFD3
:1016000001208DF8040000208DF8060001200090D4
:1016100000208DF8070003208DF8050000A9DFF8F1
:10162000D40300F0D7FE0121DFF8C80300F031FF3A
:101630002021DFF8C00300F02EFF07BD70B5302574
:101640001021DFF8AC0300F026FF00200400E4B214
:10165000082C1FDA280605D58021DFF8940300F056
:1016600018FF04E08021DFF8880300F014FF760003
:101670002021DFF87C0300F00CFF6D004021DC48E6
:1016800000F0FAFE304306002021D94800F003FFA5
:10169000641CDCE74021D64800F0EEFE0028F9D1BA
:1016A0001021D34800F0F5FE3000C0B270BD10B577
:1016B00082B0FFF7C3FF00200400A4B22A2C10D28E
:1016C000CD48A4B210EB840080788DF80000012290
:1016D00000A9C948A4B230F8240000F042FF641CFD
:1016E000EBE713BD10B582B00400012200A9200071
:1016F00080B200F003FF9DF8000016BDE0B50020A9
:101700008DF80000012200A942F6257000F029FFA3
:1017100001220DF1020142F6157000F0EFFE9DF876
:101720000200801C8DF80000012200A942F615700D
:1017300000F017FF332001F028F801220DF101011C
:1017400042F6737000F0DAFE9DF801004128F4D1F2
:10175000012202A942F6257000F0D0FE01220DF10F
:10176000090142F6237000F0C9FE01220DF10A01C1
:1017700042F6187000F0C2FE00208DF80000012231
:1017800000A942F6257000F0ECFE9DF802008DF8ED
:101790000000012200A942F6157000F0E2FE33209D
:1017A00000F0F3FF01220DF1010142F6737000F029
:1017B000A5FE9DF801004128F4D1012201A942F6BD
:1017C000257000F09BFE01220DF1050142F6237009
:1017D00000F094FE01220DF1060142F6187000F0AF
:1017E0008DFE9DF804009DF8081088421ED29DF8D9
:1017F00008008DF80000012200A942F6257000F0D3
:10180000B0FE9DF809008DF80000012200A942F603
:10181000237000F0A6FE9DF80A008DF8000001225A
:1018200000A942F6187000F09CFE1DE09DF804002F
:101830008DF80000012200A942F6257000F091FE0B
:101840009DF805008DF80000012200A942F62370E2
:1018500000F087FE9DF806008DF80000012200A927
:1018600042F6187000F07DFE07BD38B504000D008B
:101870002900C9B2200000F015F8691CC9B2200087
:1018800000F0A2FE352000F080FF0121584800F052
:10189000F3FD0028F9D00121554800F0EDFD0028A6
:1018A000F9D131BD0170554A12784270704780B548
:1018B000342000F06AFF01BD38B5040001F099F84A
:1018C0000500012200A942F6D77000F017FE8DF83E
:1018D00001009DF80000002810D1280080B201F01E
:1018E0008BF841F28831884208DA012200A942F6D9
:1018F000D77000F003FE8DF80100EAE701213C48B3
:1019000000F0BAFD0028F9D1012200A942F6D770F3
:1019100000F0F4FD8DF801009DF8000000281BD0B8
:1019200001220DF1010142F6737000F0E7FD9DF810
:10193000010010F01F00112803D13A2000F025FF0C
:101940000AE09DF80010200000F04DFE342000F069
:101950001CFF9DF8000003E0342000F016FF00207B
:1019600032BD00B5C1B001A84FF48071FFF716FE7B
:1019700001220DF1010142F6D77000F0BFFD8DF894
:1019800000009DF80100002829D00121184800F02E
:1019900073FD0028F9D101220DF1010142F6D77043
:1019A00000F0ACFD8DF80000012200A942F6737032
:1019B00000F0A4FD9DF8000010F01F00112803D1D5
:1019C0003A2000F0E2FE0AE09DF8011001A800F0C4
:1019D0000AFE01A801F06AF8342000F0D6FE41B0FA
:1019E00000BD054AC0B212EB800291707047000042
:1019F000000002400004024000000020DD2600201C
:101A000080B501215FF0805000F05CFC012001F006
:101A1000AFF9022001F0B0F9002805D0022001F052
:101A2000B8F901F034FA3BE0012000F038FC002066
:101A300000F035FC012000F079FB492000F06FFC3C
:101A40000028FAD05FF4803000F007FC012000F09D
:101A500022FC01F01CFA7F20A2494860FF20A14926
:101A6000886000209F4908609E4801F09FF900208F
:101A70009D49C87000209C49087000209A49487010
:101A80000020994988709849002001F035FA00201B
:101A90009649887000209549487000209349C87085
:101AA0004FF4807001F06CFB01BDF8B504003C20E0
:101AB000B4FBF0F100FB11408B4988704FF461607A
:101AC000B4FBF0F100FB11403C21B0FBF1F0864982
:101AD00048708748B4FBF0F100FB11404FF461619E
:101AE000B0FBF1F08049087000207F49C8707E4942
:101AF000002001F001FA7E48B4FBF0F00500ADB221
:101B000040F26D1095FBF0F0401C042190FBF1F0C9
:101B1000ADB2ADB240F26D1195FBF1F140F26D1234
:101B200002FB1151814205DBADB240F26D1095FB15
:101B3000F0F705E0ADB240F26D1095FBF0F0471EF6
:101B4000BFB207F2B270642190FBF1F201FB120008
:101B50006649C87040F26D1000FB1750BFB2B91C47
:101B6000042291FBF2F1451A0B200600BFB2B81C0B
:101B7000002804D05F48B6B230F8160003E05E4893
:101B8000B6B230F81600ADB2854201DA761EEDE746
:101B9000701C56494870BFB2B81C002804D0554884
:101BA000B6B230F8160003E05348B6B230F816006B
:101BB000281A401C4D4988704C49002001F038FA21
:101BC000F1BD10B504004849002001F008FA46486C
:101BD00004704549002001F08FF910BD10B50400D4
:101BE0004149002001F0FBF93F4844703E49002084
:101BF00001F082F910BD10B504003B49002001F04E
:101C0000EEF9394884703849002001F075F910BDAB
:101C100038B53549002001F0E2F93449002001F0DF
:101C200078FA3248C078322804DA3048C07810F5A3
:101C3000FA6503E02D48C07800F26C752A48807878
:101C40000400294840783C2101FB004426480078E4
:101C50004FF4616101FB004424488078401E244910
:101C600001FB00440420B5FBF0F101FB10510029F9
:101C700007D020481D49497810EB410030F8020C8C
:101C800006E01D481949497810EB410030F8020C74
:101C9000174901FB0044A5F2B27040F26D11A5F2A4
:101CA000B172920801FB0020114901FB00442000A1
:101CB00032BD80B50C49002001F091F90A48007846
:101CC00002BD80B50849002001F089F90648407836
:101CD00002BD80B50449002001F081F902488078F6
:101CE00002BD0000B0260020CC260020D026002017
:101CF00080510100A8000020C000002000B587B07E
:101D00000121012000F0CFFA0420009002208DF87C
:101D1000040001208DF8060001208DF80700032043
:101D20008DF8050000A9DFF88C0300F053FB0121BA
:101D30005FF4003000F0C6FA0121DFF87C03FFF702
:101D400095FB02A8FFF76EFB5FF4E13002900020E4
:101D5000ADF810000020ADF80E000020ADF80C002A
:101D60000020ADF814000C20ADF8120002A9DFF835
:101D70004803FFF7D7FA0121DFF83C03FFF760FBC8
:101D800007220221DFF82C0300F08BFB00F011F892
:101D9000CC2000F093F94E2000F090F94B2000F099
:101DA0008DF9462000F08AF95F2000F087F907B02E
:101DB00000BD30B585B000240021DFF8FC02FFF73C
:101DC0003FFBDFF8F402FFF765FA0121DFF8E802D4
:101DD000FFF74CFB00A8FFF725FB4FF416500090CF
:101DE0000020ADF808000020ADF806000020ADF896
:101DF00004000020ADF80C000C20ADF80A0000A98A
:101E0000DFF8B402FFF78EFA0121DFF8AC02FFF72A
:101E100017FB2021DFF8A002FFF770FBF021DFF8AD
:101E20009802FFF71BFB4021DFF88C02FFF757FBFE
:101E30000028F8D02021DFF88002FFF750FB0028AF
:101E4000F8D09D48FFF70EFB050020219A48FFF7C8
:101E500055FBEDB2E02D02D0EDB2C02D01D1012035
:101E6000040000219448FFF7EBFA9348FFF712FAB9
:101E700001219148FFF7FAFA00A8FFF7D3FA5FF4BF
:101E8000E13000900020ADF808000020ADF8060019
:101E90000020ADF804000020ADF80C000C20ADF8D7
:101EA0000A0000A98448FFF73DFA01218248FFF7A4
:101EB000C7FA2000C0B205B030BD38B5FFF779FFD2
:101EC000552000F0FBF8282000F0F8F8492000F039
:101ED000F5F8362000F0F2F8532000F0EFF8072074
:101EE00000F0ECF8002000F0E9F8002000F0E6F83F
:101EF000CF2000F0E3F8442000F0E0F8FFF759FFAE
:101F0000552000F0DBF8282000F0D8F8DE2000F0A3
:101F1000D5F8A82000F0D2F8522000F0CFF8072022
:101F200000F0CCF8002000F0C9F8002000F0C6F85E
:101F3000612000F0C3F8442000F0C0F8FFF739FF3B
:101F4000552000F0BBF8282000F0B8F8492000F038
:101F5000B5F8362000F0B2F8532000F0AFF80720B3
:101F600000F0ACF8002000F0A9F8002000F0A6F87E
:101F7000CF2000F0A3F8BE2000F0A0F8002400203D
:101F80000500EDB2022D08DA00F05BF8EDB2E900D1
:101F90008840204304006D1CF3E7FFF70AFF55203B
:101FA00000F08CF8282000F089F8DE2000F086F898
:101FB000A82000F083F8522000F080F8072000F0FD
:101FC0007DF8002000F07AF8002000F077F861201A
:101FD00000F074F8BE2000F071F802200500EDB2A8
:101FE000042D08DA00F02DF8EDB2E9008840204316
:101FF00004006D1CF3E7200032BD10B50024202141
:102000002D48FFF77BFAFF212B48FFF727FA4021E5
:102010002948FFF764FA0028F9D020212648FFF765
:102020005EFA0028F9D02448FFF71CFAFF2801D1F6
:102030000120040020212048FFF760FA2000C0B2F0
:1020400010BD38B50020040000200500EDB2082DB9
:1020500008DAFFF7D2FF002802D00120A84004438D
:102060006D1CF3E72000C0B232BD10B50400202182
:102070001148FFF743FAE4B2002C01D0FF2100E041
:10208000002189B20C48FFF7E9F920210A48FFF73F
:1020900026FA0028F9D040210748FFF720FA002847
:1020A000F9D00548FFF7DEF920210348FFF726FAAB
:1020B00010BD0000000002400044004038B504009C
:1020C00000200500EDB2082D08DAE4B22000284116
:1020D00010F00100FFF7C9FF6D1CF3E731BD0000F0
:1020E000DFF834000068C00709D5DFF83000DFF8FA
:1020F00030100860DFF82C00DFF82410086070470B
:10210000DFF81400006850F00100DFF80C100860E0
:102110007047054908607047043C0240EFCDAB8929
:102120000C3C024005040302183C02400021DFF889
:1021300040221170DFF8381208707047F0B40021A7
:1021400000220023002400250026DFF81C723F68CF
:1021500017F00C0739000F00002F06D0042F14D001
:10216000082F15D00C2F16D039E0804F3F68C7F3E9
:1021700042373E00012716F1010C17FA0CF74FF415
:10218000004C0CFB07F7076038E07A4F076035E03A
:10219000794F076032E0744F3F6817F470173A00C8
:1021A000714F3F6817F440073B00744F920CD25DAB
:1021B0009B0D5B1C6C4F3F6817F480373C00002C74
:1021C00006D16C4F07FB02F7B7FBF3F7076005E09A
:1021D000694F07FB02F7B7FBF3F707600EE0634FA9
:1021E0003F68C7F342373E00012716F1010C17FA8A
:1021F0000CF74FF4004C0CFB07F707605A4F3F6891
:1022000017F0F007390009095D4FCF5D3D00076801
:10221000BC463CFA05FCC0F804C0534F3F6817F4B5
:10222000E0673900090A564FCF5D3D004768BC465C
:102230003CFA05FCC0F808C04B4F3F6817F46057E4
:102240003900C90A4E4FCF5D3D004768BC463CFA95
:1022500005FCC0F80CC0F0BC7047002110F44032FF
:10226000B2F5403F09D13F4A1268110031F0C04138
:1022700010F0C04211433B4A1160424A126832F4E6
:102280004032404B1A603F4A126810F440331A4300
:102290003C4B1A607047C0B23B4908607047C0B2FF
:1022A0003A4908607047C9B2002905D0384A126817
:1022B0000243374B1A6004E0354A12688243344BBC
:1022C0001A607047C9B2002905D0324A1268024329
:1022D000304B1A6004E02F4A126882432D4B1A607B
:1022E0007047C9B2002905D02B4A126802432A4B15
:1022F0001A6004E0284A12688243274B1A6070472C
:10230000C9B2002905D0254A12680243234B1A603E
:1023100004E0224A12688243204B1A60704710B4CE
:102320000100002200230020C9B24C09E4B22200BF
:10233000012A03D10B4C2468230002E0114C2468CD
:102340002300C9B211F01F0422001C00D440E4078E
:1023500002D50124200001E000242000C0B210BCFE
:10236000704700000038024008380240043802403C
:10237000353802400024F40000127A00E800002002
:10238000D800002034380240D8064742DC064742D5
:102390001C380240243802401438024018380240E9
:1023A00000B500BF130096469446103928BFA0E838
:1023B0000C50FAD85FEA417C28BF0CC048BF40F8F7
:1023C000042BC90728BF20F8022B48BF00F8012BB7
:1023D00000BD0000F0B400220023002400250026E8
:1023E0003200102A46D20126964033000E681E4065
:1023F00034009C423CD10668350003261700FFB22A
:102400007F00BE40B5430E791700FFB27F00BE408B
:10241000354305600E79012E02D00E79022E18D1B7
:102420008668350003261700FFB27F00BE40B54323
:102430004E791700FFB27F00BE4035438560868825
:10244000350001269640B5438E799640B6B23543A5
:102450008580C668350003261700FFB27F00BE40A6
:10246000B543CE791700FFB27F00BE403543C5604B
:10247000521CB6E7F0BC704702000020138A89B2F4
:102480000B4202D00123180001E000231800C0B263
:1024900070470183704741837047828A4A40828235
:1024A0007047F0B400230024D2B211F00705EDB25A
:1024B000AD0012FA05F52B0089B2CD1010EB8505A1
:1024C00089B2CE1010EB8606366A0F2711F0070C82
:1024D0005FFA8CFC5FEA8C0C17FA0CF7BE432E6295
:1024E00089B2CD1010EB85052D6A1D432C0089B2F1
:1024F000CD1010EB85052C62F0BC70472DE9F84338
:1025000004000D001600A4B2270AA0465FFA88F85E
:10251000B8F13F0F04DBFFB2002F01D180201EE095
:10252000FFB2002F0AD1F6B233009BB22A00414617
:10253000C9B2C02000F066F881460EE0FFB22F2F2E
:102540000BD13000C0B200902B004246D2B239000D
:10255000C9B2C02000F0A8F881464846C0B2BDE824
:10256000F2832DE9F84304000D001600A4B2270AF7
:10257000A0465FFA88F8B8F13F0F04DBFFB2002FE6
:1025800001D180201EE0FFB2002F0AD1F6B2330045
:102590009BB22A004146C9B2402000F033F8814680
:1025A0000EE0FFB22F2F0BD13000C0B200902B00F5
:1025B0004246D2B23900C9B2402000F075F88146D7
:1025C0004846C0B2BDE8F28370B504000D00EDB21C
:1025D0002B009BB222007F21002000F013F80600A0
:1025E0003000C0B270BD70B504000D00EDB22B001C
:1025F0009BB22200FF21002000F004F8060030000A
:10260000C0B270BD2DE9F04704000D0016001F0098
:102610005FF000081021DFF88403FFF73CFF402142
:10262000DFF87803FFF728FF0028F8D155EA040007
:102630008146002082465FFA8AFABAF1080F23DA4F
:102640005FEA096005D58021DFF85003FFF721FF1D
:1026500004E08021DFF84403FFF71DFF5FEA48082C
:102660002021CE48FFF715FF5FEA49094021CB48FA
:10267000FFF702FF50EA080080462021C748FFF715
:102680000AFF1AF1010AD6E73A0092B2310055EA80
:102690000400C0B200F0AFF81021C048FFF7F9FE07
:1026A0004046C0B2BDE8F0872DE9F84F05000E00A6
:1026B000170098460A9C5FF000091021B748FFF701
:1026C000EAFE4021B548FFF7D7FE0028F9D156EAC7
:1026D00005008246002083465FFA8BFBBBF1080FA2
:1026E00021DA5FEA0A6004D58021AC48FFF7D1FE09
:1026F00003E08021A948FFF7CEFE5FEA49092021C7
:10270000A648FFF7C6FE5FEA4A0A4021A348FFF742
:10271000B3FE50EA090081462021A048FFF7BBFE26
:102720001BF1010BD8E7BA46002083465FFA8BFB0A
:10273000BBF1080F18DA5FEA0A6004D580219748D8
:10274000FFF7A7FE03E080219448FFF7A4FE2021B5
:102750009248FFF79EFE5FEA4A0A20218F48FFF762
:102760009AFE1BF1010BE1E7E4B2220092B241466E
:1027700056EA0500C0B200F03EF810218748FFF786
:1027800088FE4846C0B2BDE8F28FF8B504002600C6
:1027900010218248FFF77FFE40218048FFF76CFE42
:1027A0000028F9D100200700FFB2082F1CDA3006FC
:1027B00004D580217948FFF76CFE03E0802177483B
:1027C000FFF769FE6D0020217448FFF762FE760076
:1027D00040217248FFF750FE2843050020216F4832
:1027E000FFF759FE7F1CDFE710216C48FFF751FE11
:1027F0002800C0B2F2BD2DE9F04704000D0016001C
:102800005FF00009200666D5600637D500208046B7
:102810001FFA88F8B6B2B04580F0BE80002082462C
:102820000020814600200700BFB2082F20DA5FEAAF
:102830000A6004D580215948FFF72BFE03E0802170
:102840005648FFF728FE5FEA490920215348FFF761
:1028500020FE5FEA4A0A40215048FFF70DFE50EA89
:102860000900814620214D48FFF715FE7F1CDBE75C
:1028700085F800906D1C18F10108C9E70020824618
:102880000020814600200700BFB2082F20DA5FEA4F
:102890000A6004D580214148FFF7FBFD03E0802159
:1028A0003E48FFF7F8FD5FEA490920213B48FFF762
:1028B000F0FD5FEA4A0A40213848FFF7DDFD50EAA3
:1028C0000900814620213548FFF7E5FD7F1CDBE745
:1028D00085F8009060E0600634D5002080461FFA3D
:1028E00088F8B6B2B04557D2287882460020814693
:1028F00000200700BFB2082F20DA5FEA0A6004D583
:1029000080212648FFF7C5FD03E080212348FFF71B
:10291000C2FD5FEA490920212048FFF7BAFD5FEABE
:102920004A0A40211D48FFF7A7FD50EA09008146E9
:1029300020211A48FFF7AFFD7F1CDBE76D1C18F163
:102940000108CCE728788246002081460020070055
:10295000BFB2082F20DA5FEA0A6004D580210F4851
:10296000FFF797FD03E080210C48FFF794FD5FEA35
:10297000490920210948FFF78CFD5FEA4A0A4021F6
:102980000648FFF779FD50EA0900814620210348F7
:10299000FFF781FD7F1CDBE7BDE8F0870000024008
:1029A0007047FEE7FEE7FEE7FEE7704770477047B7
:1029B00080B502215FF0804000F085FC002817D030
:1029C00002215FF0804000F097FC5FF0804000F053
:1029D0006DFC2E4908802D48008810F57A715FF053
:1029E000804000F058FC2A480088401C2849088094
:1029F00001BD2748008870470100254A128889B226
:102A00008A4204D3224A1288521A100006E04FF676
:102A1000FF72521A1E4B1B889A18100080B2704722
:102A200080B540F225511B48FEF76EFD00282CD0E2
:102A300019480078002805D040F225511548FEF7C6
:102A40009AFD22E015480088FFF7D6FFC92802DB6F
:102A5000002013490870FFF7CCFF104908800D488B
:102A6000FEF700FD0F490E4A127850540C480078CA
:102A7000401C0B4908700A4800780A490978491C2B
:102A8000884202D101200449087001BDD4260020EB
:102A9000D626002000480040DC260020D826002052
:102AA000DB2600204825002070470000F8B5040010
:102AB000002660780500E078242861D1A348F6B2AA
:102AC000305CEDB2A84206D0A1480078F6B286424A
:102AD00001D2761CF2E79E480078F6B2864207D112
:102AE0009A48F6B235549A480078401C98490870C4
:102AF000A5702120E07003212000FEF7B6FEFEF74E
:102B0000D6FE2000FEF7D8FE00282DD004200700B6
:102B10002078FFB287421ED2FFB2381F042190FBFB
:102B2000F1F08C49F6B2782202FB0611FFB23A5D51
:102B3000FFB23B195B781B0453EA0262FFB23B19F8
:102B40009B7852EA0322FFB23B19DB781A4341F823
:102B500020203F1DDCE72078C01E042190FBF1F00F
:102B60007D49F6B27054A0E07C487A49F6B27822EA
:102B700002FB0611086001207749F6B2705494E018
:102B8000E078222840F091807048F6B2305CEDB2D7
:102B9000A84206D06E480078F6B2864201D2761C72
:102BA000F2E76B480078F6B2864207D16748F6B282
:102BB000355467480078401C65490870A57022208C
:102BC000E07003212000FEF750FEFEF770FE2000AB
:102BD000FEF772FE002824D0042007002078FFB200
:102BE000874225D2FFB2381F042190FBF1F05C49E7
:102BF000F6B2A02202FB0611FFB23A5DFFB23B190A
:102C00005B781B0453EA0262FFB23B199B7852EADD
:102C10000322FFB23B19DB781A4341F820203F1D05
:102C2000DCE750484E49F6B2A02202FB06110860CC
:102C3000A5702320E07003212000FEF716FEFEF7AA
:102C400036FE2000FEF738FE002827D004200700BB
:102C5000FFB22078001F874227DAFFB2381F042115
:102C600090FBF1F03E49F6B2A02202FB061111EBF7
:102C70008000FFB239190979FFB23A19527912046A
:102C800052EA0161FFB23A19927951EA0221FFB288
:102C90003A19D279114301643F1DD9E732483049CE
:102CA000F6B2A02202FB061108643048F6B21E21DB
:102CB00001FB06000078002837D0A570002007002F
:102CC0002A48F6B21E2101FB06000078FFB28742B7
:102CD0000CD22648F6B21E2101FB0600FFB23818BE
:102CE0004078FFB23919C8707F1CE9E71F48F6B277
:102CF0001E2101FB06000078811CC9B22000FEF7EE
:102D0000B4FD00201949F6B21E2202FB061108701C
:102D1000FEF7CDFD2000FEF7CFFD1448F6B21E21D0
:102D200001FB0600407813280ED00848F6B2305C4C
:102D3000A070F120E07003212000FEF796FDFEF761
:102D4000B6FD2000FEF7B8FDF1BD00BF482600200B
:102D5000DA260020B41300206826002021007265C6
:102D6000F40000202200726523007265C421002057
:102D7000C0B20B4908607047010000200A4A12687F
:102D80000A4202D00122100001E000221000C0B26D
:102D900070470449096851EA8001024A116070478E
:102DA00020000E42007000400470004038B504005E
:102DB0000025CA20DFF8B81308605320DFF8B013ED
:102DC000086000F02DF8002802D10020050020E066
:102DD000DFF89403006830F04000DFF88C130860DF
:102DE000DFF88403006821680843DFF87C1308607B
:102DF000A068DFF878130860DFF870030068616886
:102E000050EA0140DFF86413086000F037F8012051
:102E10000500FF20DFF8581308602800C0B232BD5B
:102E200081B00020009000200021DFF848231268C4
:102E300052061ED45FF0FF32DFF838331A60DFF835
:102E40003423126812F040021100009A521C0092C2
:102E5000009AB2F5005F01D00029F0D0DFF814230A
:102E60001268520602D50122100004E00022100070
:102E700001E001221000C0B201B07047DFF8F80293
:102E8000006830F08000DFF8F0120860704781B011
:102E90000020009000200021CA22DFF8D4321A60FE
:102EA0005322DFF8CC321A60DFF8C822126832F001
:102EB000A002DFF8C0321A60DFF8B822126812F000
:102EC00020021100009A521C0092009AB2F5004FA5
:102ED00001D00029F0D0DFF89C221268920602D5BA
:102EE0000122100001E000221000FF22DFF88032F2
:102EF0001A60C0B201B070472DE9F84304000D001C
:102F000000260027002C07D1DFF85C02006840068D
:102F100001D40020E8700BE0DFF84C0200684006A6
:102F200004D5287800F04BF9060001E00020E87095
:102F3000002C0BD028786978090251EA0040A97862
:102F40000843E97850EA0140060018E0287800F0CC
:102F50002BF98046687800F027F98146A87800F0C0
:102F600023F95FFA88F85FFA89F95FEA092151EAE3
:102F70000841C0B20843E97850EA01400600CA207F
:102F8000DFF8F81108605320DFF8F0110860FFF750
:102F900047FF002802D10020070018E0DFF8FC01FD
:102FA0003040DFF8BC110860FFF768FFDFF8B801B8
:102FB0000068800609D4FFF76AFF002802D10020CC
:102FC000070004E00120070001E001200700FF20C6
:102FD000DFF8A81108603800C0B2BDE8F28370B510
:102FE00004000D000026DFF878010068DFF8AC115E
:102FF00008400600300C10F03F002870300A10F036
:103000007F00687016F07F00A870300C10F0400050
:10301000E870002C0BD1287800F0D1F8287068787F
:1030200000F0CDF86870A87800F0C9F8A87070BDFD
:103030002DE9F84304000D0000260027002C07D1DD
:103040006878C00604D5687810F0EF000A30687020
:10305000002C07D0687800F0B2F80600A87800F0DD
:10306000AEF80600002C0BD0E8786978090251EA26
:103070000040A9780843297850EA4130060018E05A
:10308000E87800F091F88046687800F08DF8814685
:10309000A87800F089F85FFA88F85FFA89F95FEAA2
:1030A000092151EA0841C0B20843297850EA413069
:1030B0000600CA20DFF8C41008605320DFF8BC10F7
:1030C0000860FFF7ADFE002802D10020070018E0DD
:1030D000DFF8CC003040DFF88C100860FFF7CEFE40
:1030E000DFF884000068800609D4FFF7D0FE0028CE
:1030F00002D10020070004E00120070001E00120C8
:103100000700FF20DFF8741008603800C0B2BDE887
:10311000F28370B504000D000026DFF84800006857
:10312000DFF87C1008400600300CE870300A10F020
:103130001F00687016F03F00A870700B10F00700B9
:103140002870002C0BD1E87800F039F8E870687826
:1031500000F035F86870A87800F031F8A87070BDFC
:1031600000280040042800400828004010280040A3
:10317000242800400C2800400C280040242800404F
:10318000C103C90B51F08001064A126812F0800297
:1031900072EA0101034A1160704700007F7F7F00DF
:1031A0003FFFFF000C2800400021C0B20A2802DBCC
:1031B000491C0A38F9E750EA0110C0B270470021F3
:1031C000C0B202090A235A43110010F00F00401840
:1031D000C0B27047002203881A00B0F1804F08D0B7
:1031E000104B984205D0104B984202D00F4B98429A
:1031F00004D14FF68F731A404B881A430C4B9842F8
:1032000007D00C4B984204D04FF6FF431A400B896D
:103210001A4302804B68C3620B88038501238382B3
:10322000704700000004004000080040000C00400F
:103230000010004000140040C9B2002904D00288E8
:1032400052F00102028004E002884FF6FE731A4039
:103250000280704730B400220023048C4FF6FE75C4
:103260002C400484048C2300048B22004FF68F74BE
:1032700022404FF6FC7422400C8822434FF6FD7426
:1032800023400C8923434C8823434C6844630283C6
:10329000038430BC7047416370470022038B1A00DF
:1032A0004FF6F7731A400A4302837047406B70472A
:1032B000D2B2002A03D083890B43838102E0838941
:1032C0008B438381704730B4020000200023002428
:1032D000158A0D402B0095890D402C009BB2002BC8
:1032E00005D0A4B2002C02D00125280001E0002561
:1032F0002800C0B230BC704789B2CA43028270470E
:1033000080B51C206C49087000206B494870002073
:103310006949887001206849C870674800F0E2F880
:1033200001210120FEF7CEFF0720644908804FF6F7
:10333000FF706249486061495FF08040FFF74AFFD3
:1033400000205F49088000205D49088101205C4918
:1033500048804FF47A705A49486059495FF080407C
:10336000FFF778FF00215FF08040FFF796FF012212
:1033700002215FF08040FFF79BFF01215FF080405A
:10338000FFF75AFF01210220FEF78DFF01204D4972
:10339000087100204B49887106204A4908600120C5
:1033A0004849487147494848FFF714F806214648FC
:1033B000FFF76FF8FEF724FB07220A214248FFF7C8
:1033C00070F807220B214048FFF76BF802203D49B7
:1033D00008714FF440603B49086001203949C871C9
:1033E00000203849887103203649487135493648EC
:1033F000FEF7F0FF27203049087001202E49487061
:1034000000202D49887001202B49C8702A4800F0FF
:1034100069F801215FF48020FEF754FF00202B495A
:10342000087000202A4908705FF4E13029490860DB
:1034300000202849088100202649C880002025490D
:1034400088800020234988810C2022494881214915
:103450002148FDF767FF01211F48FDF7F1FF012219
:1034600040F225511C48FEF70FF8FEF79BF8FEF7D7
:103470001EF9FEF743F9FEF71AFAFEF73FFC0020AB
:1034800016490870FFF7B5FA15490860FCF754FEB5
:103490001348006880B2FFF7AFFAB0F5FA7FF5DBAA
:1034A000FEF75FFA02210848FEF7F7FFFFF7A1FADF
:1034B0000B490860EAE700BFC426002098260020D8
:1034C000A4260020BC26002000040240DB260020A9
:1034D000DC2600208826002000480040DA26002054
:1034E000C826002070B4002400220F23C1780029D0
:1034F00023D01849096811F4E061D1F5E061090AA7
:103500000C00D4F104010A00DBB219000B002341C6
:10351000417891400C00817819400C4324010E49F8
:1035200005786C540121057815F01F05A9400B4D55
:103530000678761145F8261009E00121057815F086
:103540001F05A940064D0678761145F8261070BC77
:10355000704700000CED00E000E400E000E100E056
:1035600080E100E080B54748006850F4807045492C
:10357000086045480068454908404349086041489B
:103580000068434908403F4908603E48006830F4FD
:1035900080203C4908603C48006830F47D003A498E
:1035A000086000203B49086000F005F85FF000600B
:1035B0003949086001BD82B00020019000200090D0
:1035C0003048006850F480302E4908602D4800686B
:1035D00010F4003000900198401C019000980028E1
:1035E00003D10198B0F5A04FF0D1264800688003C0
:1035F00002D50120009001E00020009000980128F1
:103600003DD126480068400840002449086023480E
:10361000006830F00200214908602048006830F05E
:1036200004001E4908601E48006850F080501C4984
:1036300008604FF400601B4908601B480068C00622
:10364000FBD411480068104908600F4800680E4913
:1036500008600D4800680C4908600B480068800845
:103660008000094908600848006850F002000649D7
:1036700008600548006810F00C000828F9D102B075
:103680007047000000380240083802400CC0FF8834
:10369000FEFFFEEE0C38024008ED00E0003C024068
:1036A00024380240007000400470004010B450F80C
:1036B000041B79B10268436812180830DC0744BF64
:1036C000A9F10104E31852F8044B43F8044B091F15
:1036D000F9D1ECE710BC704710B5074979441831AF
:1036E000064C7C44163404E00A68081D51188847CB
:1036F0000146A142F8D110BD0800000028000000DA
:1037000073DBFFFFEC250000F40000200000000048
:103710009DFFFFFFF40000001801000000000020E2
:103720000000000000F00BF8002801D0FFF7D4FFE4
:103730000020C046C046FFF7E3FD00F002F801207C
:10374000704700F001B800000746384600F002F864
:10375000FBE7000080B5C046C046024A11001820B1
:10376000ABBEFBE726000200014880470148004746
:103770006535000879370008C046C046C046C046D7
:10378000FFF7D0FFFFF7FEBFFFF7FEBFFFF7FEBF5B
:10379000FFF7FEBFFFF7FEBFFFF7FEBFFFF7FEBF5D
:1037A000FFF7FEBFFFF7FEBFFFF7FEBFFFF7FEBF4D
:1037B000FFF7FEBFFFF7FEBFFFF7FEBFFFF7FEBF3D
:1037C000FFF7FEBFFFF7FEBFFFF7FEBFFFF7FEBF2D
:1037D000FFF7FEBFFFF7FEBFFFF7FEBFFFF7FEBF1D
:1037E000FFF7FEBFFFF7FEBFFFF7FEBFFFF7FEBF0D
:1037F000FFF7FEBFFFF7FEBFFFF7FEBFFFF7FEBFFD
:10380000FFF7FEBFFFF7FEBFFFF7FEBFFFF7FEBFEC
:10381000FFF7FEBFFFF7FEBFFFF7FEBFFFF7FEBFDC
:10382000FFF7FEBFFFF7FEBFFFF7FEBFFFF7FEBFCC
:103830000000B000010006000200B0000300B0006C
:1038400008000B000B0003000C001C001000C60059
:1038500011000800130005001400430017002000A9
:10386000180019001C00A9001D00CF001E00000058
:10387000200003002100120027000500280020007E
:103880002B007F002C0056002D001C002E00FF0096
:10389000002F0000012F22000C2F6C000D2F800044
:1038A0000E2F0000122F0000132F5F00172F0E00A5
:1038B000192F03001B2F33001D2F17001F2F50003F
:1038C000202F6E00212F1400222FAC00322F0E006B
:1038D000342FC700362F070000001F003B005A009E
:1038E00078009700B500D400F300110130014E01BB
:1038F00000001F003C005B0079009800B600D50076
:10390000F400120131014F01000000000102030424
:103910000102030406070809030406080C10182016
:043920003000000073
:04000005080037793F
:00000001FF
