:020000040800F2
:1000000048050020D5390008352E0008372E000895
:10001000392E00083B2E00083D2E0008000000008D
:100020000000000000000000000000003F2E00085B
:10003000412E000800000000432E0008D52E0008C5
:10004000F1390008F5390008F9390008FD390008D0
:10005000013A0008053A0008093A00080D3A00087C
:10006000113A0008153A0008193A00081D3A00082C
:10007000213A0008253A0008293A00082D3A0008DC
:10008000313A0008353A0008393A00083D3A00088C
:10009000413A0008453A0008493A00084D3A00083C
:1000A000513A0008553A0008593A00085D3A0008EC
:1000B000452E0008613A0008653A0008693A0008D0
:1000C0006D3A0008713A0008753A0008793A00085C
:1000D0007D3A0008813A0008853A0008893A00080C
:1000E0008D3A0008913A0008953A0008993A0008BC
:1000F0009D3A000800B583B00121012000F0F7FF10
:1001000001208DF8040000208DF80600B02000903A
:1001100000208DF8070003208DF8050000A9DFF806
:10012000F80301F061F800208DF8040000208DF83C
:1001300006004120009001208DF8070000A9DFF89B
:10014000D80301F051F81021DFF8CC0301F0ABF82F
:1001500001208DF8040000208DF806000120009099
:1001600000208DF8070003208DF8050000A9DFF8B6
:10017000AC0D01F039F80121DFF8A00D01F093F882
:100180002021DFF8980D01F090F807BD70B53025FB
:100190001021DFF8840301F088F800200400E4B2A5
:1001A000082C1CDA280604D58021DB4801F07BF8F6
:1001B00003E08021D84801F078F876002021D64865
:1001C00001F071F86D004021D34801F05FF8304331
:1001D00006002021D04801F068F8641CDFE74021C8
:1001E000CD4801F053F80028F9D11021CA4801F098
:1001F0005AF83000C0B270BD70B539251021C6481C
:1002000001F053F800200400E4B2082C1CDA2806A0
:1002100004D58021C04801F046F803E08021BE48A3
:1002200001F043F876002021BB4801F03CF86D0056
:100230004021B94801F02AF8304306002021B64891
:1002400001F033F8641CDFE74021B34801F01EF8E9
:100250000028F9D11021B04801F025F83000C0B2D3
:1002600070BD10B582B0FFF791FF00200400A4B26A
:100270002A2C12D2DFF8A80CA4B210EB84008078EC
:100280008DF80000012200A9DFF8940CA4B230F828
:10029000240001F070F8641CE9E713BD10B582B0CA
:1002A0000400012200A9200080B201F031F89DF87D
:1002B000000016BDE0B500208DF80000012200A965
:1002C00042F6257001F057F801220DF1020142F6C5
:1002D000157001F01DF89DF80200801C8DF80000DB
:1002E000012200A942F6157001F045F8332001F013
:1002F00056F901220DF1010142F6737001F008F880
:100300009DF801004128F4D1012202A942F625708E
:1003100000F0FEFF01220DF1090142F6237000F00A
:10032000F7FF01220DF10A0142F6187000F0F0FF0C
:1003300000208DF80000012200A942F6257001F08E
:100340001AF89DF802008DF80000012200A942F67B
:10035000157001F010F8332001F021F901220DF1A0
:10036000010142F6737000F0D3FF9DF801004128AF
:10037000F4D1012201A942F6257000F0C9FF012243
:100380000DF1050142F6237000F0C2FF01220DF1CC
:10039000060142F6187000F0BBFF9DF804009DF8BE
:1003A000081088421ED29DF808008DF80000012236
:1003B00000A942F6257000F0DEFF9DF809008DF8D7
:1003C0000000012200A942F6237000F0D4FF9DF83E
:1003D0000A008DF80000012200A942F6187000F012
:1003E000CAFF1DE09DF804008DF80000012200A95D
:1003F00042F6257000F0BFFF9DF805008DF8000063
:10040000012200A942F6237000F0B5FF9DF8060016
:100410008DF80000012200A942F6187000F0ABFF31
:1004200007BD38B504000D002900C9B2200000F056
:1004300015F8691CC9B2200000F0D0FF352001F08A
:10044000AEF80121344800F021FF0028F9D0012145
:10045000314800F01BFF0028F9D131BD38B5040048
:100460000D002570DFF8BC0A01F0B1F96070DFF80B
:10047000B80A01F0ACF9A07031BD80B5342001F0AC
:100480008EF801BD00B5C1B001A84FF4807101F034
:10049000B1F901220DF1010142F6D77000F038FFE9
:1004A0008DF800009DF80100002831D001211A4884
:1004B00000F0ECFE0028F9D101220DF1010142F615
:1004C000D77000F025FF8DF80000012200A942F648
:1004D000737000F01DFF9DF8000010F01F00112840
:1004E00003D13A2001F05BF812E09DF8011001A859
:1004F00000F083FFDFF82C0A01F069F99DF806107F
:10050000814202D101A800F009F8342001F047F837
:1005100041B000BD00000000000002402DE9F8439A
:100520000400E078012809D12179DFF8F80901F009
:1005300041F9200000F0E0FC00F0DCBCE07802288B
:1005400009D12179DFF8E00901F034F9200000F049
:10055000D3FC00F0CFBCE078032811D1207901282A
:1005600004D10021DFF8C40901F024F92179DFF872
:10057000C00901F01FF9200000F0BEFC00F0BABC79
:10058000E078042812D120796179090451EA0060E9
:10059000A17950EA0120E17908430500280001F023
:1005A00064FB200000F0A8FC00F0A4BCE078052863
:1005B00014D120796179090451EA0060A17950EAE7
:1005C0000120E179084305002900DFF8680901F0FE
:1005D000F1F8200000F090FC00F08CBCE0780628D8
:1005E0000CD120793C2101FB00F1DFF84C0901F02E
:1005F000E1F8200000F080FC00F07CBCE0780728E7
:1006000009D12179DFF8340901F0D4F8200000F095
:1006100073FC00F06FBCE078082814D12079617970
:10062000090451EA0060A17950EA0120E179084308
:1006300005002900DFF8080901F0BCF8200000F0EF
:100640005BFC00F057BCE07809280ED12079617975
:1006500051EA002005002900DFF8D00801F0AAF8CF
:10066000200000F049FC00F045BCE07810284ED195
:100670002179DFF8D00801F09DF8002007002079EB
:10068000FFB287423FD2FFB214EBC7004079FFB2FE
:1006900014EBC7018979090451EA0060FFB214EB39
:1006A000C701C97950EA0120FFB214EBC701097AEA
:1006B000084305002900FFB2DFF88C0810EBC700E3
:1006C00001F078F8FFB214EBC700407AFFB214EBE8
:1006D000C701897A090451EA0060FFB214EBC7012F
:1006E000C97A50EA0120FFB214EBC701097B084325
:1006F00005002900FFB2DFF8540810EBC70001F035
:1007000059F87F1CBBE7200000F0F6FBF2E3E0782D
:10071000122808D12179DFF8380801F04BF82000C1
:1007200000F0EAFBE6E3E078132808D10121DFF8C6
:10073000240801F03FF8200000F0DEFBDAE3E07867
:10074000152813D120796179090451EA0060A17953
:1007500050EA0120E179084305002900DFF8F80795
:1007600001F028F8200000F0C7FBC3E3E078182868
:1007700013D120796179090451EA0060A17950EA26
:100780000120E179084305002900DFF8D00701F0D6
:1007900011F8200000F0B0FBACE3E07819280DD18F
:1007A0002079617951EA002005002900DFF8B007BF
:1007B00001F000F8200000F09FFB9BE3E078202888
:1007C00074D101F067FCDFF87C0701F000F82071BC
:1007D000002007002079FFB287425FD2FFB2DFF826
:1007E000680710EBC70000F0F2FF000EFFB214EB39
:1007F000C7014871FFB2DFF8500710EBC70000F0E7
:10080000E6FF000CFFB214EBC7018871FFB2DFF8FE
:10081000380710EBC70000F0DAFF000AFFB214EB54
:10082000C701C871FFB2DFF8200710EBC70000F066
:10083000CEFFFFB214EBC7010872FFB2DFF80C075E
:1008400010EBC70000F0C3FF000EFFB214EBC701AE
:100850004872FFB2DFF8F40610EBC70000F0B7FFF4
:10086000000CFFB214EBC7018872FFB2DFF8DC06A0
:1008700010EBC70000F0ABFF000AFFB214EBC7019A
:10088000C872FFB2DFF8C40610EBC70000F09FFF8C
:10089000FFB214EBC70108737F1C9BE72079C000EF
:1008A000011DC9B22000FFF7BCFD23E3E078212839
:1008B00073D1DFF89C0600F08AFF002802D05FF0B9
:1008C000070801E05FF00708DFF8600600F07FFF2F
:1008D0005FFA88F818EB1020401E5FFA88F8B0FB2A
:1008E000F8F108FB110900200700DFF8500600F0BE
:1008F0006EFF401CFFB2874244D25FFA89F9802024
:10090000FFB2B90000FB0910DFF85816081800F014
:100910005EFF000EFFB214EB870108715FFA89F9E0
:100920008020FFB2B90000FB0910DFF83816081864
:1009300000F04DFF000CFFB214EB870148715FFA25
:1009400089F98020FFB2B90000FB0910DFF8141606
:10095000081800F03CFF000AFFB214EB8701887111
:100960005FFA89F98020FFB2B90000FB0910DFF8B7
:10097000F415081800F02BFFFFB214EB8701C871C3
:100980007F1CB2E7DFF8B40500F021FF8000C11D35
:10099000C9B22000FFF745FDACE2E078222840F024
:1009A0009480DFF8AC0500F012FF002802D05FF061
:1009B000030801E05FF00608DFF8A40500F007FF78
:1009C0005FFA88F818EB1020401E5FFA88F8B0FB39
:1009D000F8F108FB11095FFA89F98020DFF8881522
:1009E00000FB091000F0F3FE000E20715FFA89F998
:1009F0008020DFF8741500FB091000F0E8FE000C01
:100A000060715FFA89F98020DFF85C1500FB09103E
:100A100000F0DDFE000AA0715FFA89F98020DFF89E
:100A2000481500FB091000F0D2FEE071002007001D
:100A3000FFB20F2F44DA5FFA89F98020FFB2B900C4
:100A400000FB0910DFF82415081800F0C0FE000EA6
:100A5000FFB214EB870108725FFA89F98020FFB2B8
:100A6000B90000FB0910DFF80415081800F0AFFE0C
:100A7000000CFFB214EB870148725FFA89F98020FD
:100A8000FFB2B90000FB0910DFF8E014081800F00D
:100A90009EFE000AFFB214EB870188725FFA89F9A3
:100AA0008020FFB2B90000FB0910DFF8C01408185D
:100AB00000F08DFEFFB214EB8701C8727F1CB7E710
:100AC00043212000FFF7ADFC14E2E078232840F03A
:100AD0009480DFF87C0400F07AFE002802D05FF0FA
:100AE000030801E05FF00608DFF8740400F06FFE11
:100AF0005FFA88F818EB1020401E5FFA88F8B0FB08
:100B0000F8F108FB11095FFA89F98020DFF8581421
:100B100000FB091000F05BFE000E20715FFA89F9FE
:100B20008020DFF8441400FB091000F050FE000C98
:100B300060715FFA89F98020DFF82C1400FB09103E
:100B400000F045FE000AA0715FFA89F98020DFF805
:100B5000181400FB091000F03AFEE07100200700B5
:100B6000FFB20F2F44DA5FFA89F98020FFB2B90093
:100B700000FB0910DFF8F813081800F028FE000E3B
:100B8000FFB214EB870108725FFA89F98020FFB287
:100B9000B90000FB0910DFF8D813081800F017FEA1
:100BA000000CFFB214EB870148725FFA89F98020CC
:100BB000FFB2B90000FB0910DFF8B413081800F009
:100BC00006FE000AFFB214EB870188725FFA89F90A
:100BD0008020FFB2B90000FB0910DFF89413081859
:100BE00000F0F5FDFFB214EB8701C8727F1CB7E778
:100BF00043212000FFF715FC7CE1E07824280ED18A
:100C000001F0ECF80500280E2071280C6071280A0C
:100C1000A071E57107212000FFF703FC6AE1E0788D
:100C200031280FD101F0E4FAC0000500280E207130
:100C3000280C6071280AA071E57107212000FFF7D8
:100C4000F0FB57E1E078322855D194F80480002079
:100C50000700BA4800F0BBFD401CFFB2874240D2FB
:100C60005FFA88F88020FFB2B90000FB0810BD4988
:100C7000081800F0ACFD000EFFB214EB87010871FC
:100C80005FFA88F88020FFB2B90000FB0810B54970
:100C9000081800F09CFD000CFFB214EB87014871AE
:100CA0005FFA88F88020FFB2B90000FB0810AD4958
:100CB000081800F08CFD000AFFB214EB8701887160
:100CC0005FFA88F88020FFB2B90000FB0810A54940
:100CD000081800F07CFDFFB214EB8701C8717F1C7F
:100CE000B7E7964800F073FD8000C11DC9B220002F
:100CF000FFF797FBFEE0E07833284CD194F80480AE
:100D000000200700FFB21F2F40DA5FFA88F880202A
:100D1000FFB2B90000FB08109349081800F057FD16
:100D2000000EFFB214EB870108715FFA88F880208B
:100D3000FFB2B90000FB08108B49081800F047FD0E
:100D4000000CFFB214EB870148715FFA88F880202D
:100D5000FFB2B90000FB08108349081800F037FD06
:100D6000000AFFB214EB870188715FFA88F88020CF
:100D7000FFB2B90000FB08107B49081800F027FDFE
:100D8000FFB214EB8701C8717F1CBBE77F212000F5
:100D9000FFF747FBAEE0E078F12807D1200000F034
:100DA000ABF8FFF729FA00F07FFDA3E0E078F22826
:100DB0000BD121795E4800F0FDFC200000F09CF88A
:100DC000FFF71AFA00F032FF94E0E078412819D1D9
:100DD00042F67170FFF762FA0001060042F6727087
:100DE000FFF75CFAC0B2C0080700FFB217F00F00AF
:100DF0000643B6B2300A2071667105212000FFF764
:100E000010FB77E0E078422813D12079060020001B
:100E100000F072F8B6B2700010F12101C9B21420CE
:100E200000F075F8FFF71DFAFFF744FAFFF725FB0E
:100E300060E0E078432810D120790600200000F01F
:100E40005BF83100C9B20A2000F061F8FFF709FA37
:100E5000FFF730FAFFF711FB4CE0E078442838D177
:100E600020790600200000F047F8B6B2012E03D129
:100E70000321052000F04BF8B6B2022E03D10B215E
:100E8000052000F044F8B6B2032E03D1232105203B
:100E900000F03DF8B6B2042E03D12B21052000F05E
:100EA00036F8B6B2022096FBF0F101FB1061002982
:100EB00004D00B21042000F02AF803E008210420CC
:100EC00000F025F8FFF7CDF9FFF7F4F9FFF7D5FAB1
:100ED00010E0E078452805D120790600200000F0D8
:100EE0000BF8FBE7E0202071E12060710521200074
:100EF000FFF797FABDE8F18310B504006F20207169
:100F00006B20607105212000FFF78BFA10BD044AA9
:100F1000C0B212EB800291707047000000040240E2
:100F20000000002000000808040008081800080855
:100F3000080008080C000808100008081400080839
:100F40001C00080834000808380008083C0008089D
:100F5000300008082C0008082000080824000808B1
:100F6000280008080001080800050808040508080A
:100F7000400508080021DFF840221170DFF8381220
:100F800008707047F0B400210022002300240025DF
:100F90000026DFF81C723F6817F00C0739000F00BD
:100FA000002F06D0042F14D0082F15D00C2F16D0E8
:100FB00039E0804F3F68C7F342373E00012716F102
:100FC000010C17FA0CF74FF4004C0CFB07F7076005
:100FD00038E07A4F076035E0794F076032E0744FB0
:100FE0003F6817F470173A00714F3F6817F44007D5
:100FF0003B00744F920CD25D9B0D5B1C6C4F3F68A5
:1010000017F480373C00002C06D16C4F07FB02F729
:10101000B7FBF3F7076005E0694F07FB02F7B7FB83
:10102000F3F707600EE0634F3F68C7F342373E00B7
:10103000012716F1010C17FA0CF74FF4004C0CFBCA
:1010400007F707605A4F3F6817F0F00739000909A2
:101050005D4FCF5D3D000768BC463CFA05FCC0F81B
:1010600004C0534F3F6817F4E0673900090A564F30
:10107000CF5D3D004768BC463CFA05FCC0F808C09F
:101080004B4F3F6817F460573900C90A4E4FCF5D88
:101090003D004768BC463CFA05FCC0F80CC0F0BCFB
:1010A0007047002110F44032B2F5403F09D13F4A69
:1010B0001268110031F0C04110F0C04211433B4AA8
:1010C0001160424A126832F44032404B1A603F4A83
:1010D000126810F440331A433C4B1A607047C0B298
:1010E0003B4908607047C0B23A4908607047C9B2CE
:1010F000002905D0384A12680243374B1A6004E0D1
:10110000354A12688243344B1A607047C9B20029CD
:1011100005D0324A12680243304B1A6004E02F4A6D
:10112000126882432D4B1A607047C9B2002905D05E
:101130002B4A126802432A4B1A6004E0284A1268BC
:101140008243274B1A607047C9B2002905D0254A4F
:1011500012680243234B1A6004E0224A1268824359
:10116000204B1A60704710B40100002200230020B9
:10117000C9B24C09E4B22200012A03D10B4C246805
:10118000230002E0114C24682300C9B211F01F04AF
:1011900022001C00D440E40702D50124200001E015
:1011A00000242000C0B210BC70470000003802408C
:1011B0000838024004380240353802400024F40068
:1011C00000127A00E8000020D800002034380240E5
:1011D000D8064742DC0647421C3802402438024009
:1011E0001438024018380240F0B4002200230024D2
:1011F000002500263200102A46D2012696403300F0
:101200000E681E4034009C423CD10668350003261F
:101210001700FFB27F00BE40B5430E791700FFB242
:101220007F00BE40354305600E79012E02D00E7955
:10123000022E18D18668350003261700FFB27F0002
:10124000BE40B5434E791700FFB27F00BE40354324
:1012500085608688350001269640B5438E79964094
:10126000B6B235438580C668350003261700FFB245
:101270007F00BE40B543CE791700FFB27F00BE406D
:101280003543C560521CB6E7F0BC70470200002031
:10129000138A89B20B4202D00123180001E0002317
:1012A0001800C0B270470183704741837047828A3B
:1012B0004A4082827047F0B400230024D2B211F079
:1012C0000705EDB2AD0012FA05F52B0089B2CD107D
:1012D00010EB850589B2CE1010EB8606366A0F2713
:1012E00011F0070C5FFA8CFC5FEA8C0C17FA0CF714
:1012F000BE432E6289B2CD1010EB85052D6A1D43C9
:101300002C0089B2CD1010EB85052C62F0BC704723
:101310002DE9F84304000D001600A4B2270AA046E8
:101320005FFA88F8B8F13F0F04DBFFB2002F01D15C
:1013300080201EE0FFB2002F0AD1F6B233009BB22C
:101340002A004146C9B2C02000F066F881460EE08E
:10135000FFB22F2F0BD13000C0B200902B004246BD
:10136000D2B23900C9B2C02000F0A8F88146484680
:10137000C0B2BDE8F2832DE9F84304000D00160069
:10138000A4B2270AA0465FFA88F8B8F13F0F04DB41
:10139000FFB2002F01D180201EE0FFB2002F0AD142
:1013A000F6B233009BB22A004146C9B2402000F099
:1013B00033F881460EE0FFB22F2F0BD13000C0B2C0
:1013C00000902B004246D2B23900C9B2402000F052
:1013D00075F881464846C0B2BDE8F28370B5040096
:1013E0000D00EDB22B009BB222007F21002000F007
:1013F00013F806003000C0B270BD70B504000D00D7
:10140000EDB22B009BB22200FF21002000F004F877
:1014100006003000C0B270BD2DE9F04704000D0099
:1014200016001F005FF000081021DFF88403FFF7AB
:101430003CFF4021DFF87803FFF728FF0028F8D1B0
:1014400055EA04008146002082465FFA8AFABAF122
:10145000080F23DA5FEA096005D58021DFF8500321
:10146000FFF721FF04E08021DFF84403FFF71DFFB1
:101470005FEA48082021CE48FFF715FF5FEA4909D7
:101480004021CB48FFF702FF50EA080080462021A8
:10149000C748FFF70AFF1AF1010AD6E73A0092B2ED
:1014A000310055EA0400C0B200F0AFF81021C04886
:1014B000FFF7F9FE4046C0B2BDE8F0872DE9F84FCE
:1014C00005000E00170098460A9C5FF000091021E5
:1014D000B748FFF7EAFE4021B548FFF7D7FE0028DE
:1014E000F9D156EA05008246002083465FFA8BFB5D
:1014F000BBF1080F21DA5FEA0A6004D58021AC480D
:10150000FFF7D1FE03E08021A948FFF7CEFE5FEA96
:1015100049092021A648FFF7C6FE5FEA4A0A402192
:10152000A348FFF7B3FE50EA090081462021A048F6
:10153000FFF7BBFE1BF1010BD8E7BA46002083463C
:101540005FFA8BFBBBF1080F18DA5FEA0A6004D57B
:1015500080219748FFF7A7FE03E080219448FFF71A
:10156000A4FE20219248FFF79EFE5FEA4A0A20214E
:101570008F48FFF79AFE1BF1010BE1E7E4B222006E
:1015800092B2414656EA0500C0B200F03EF8102182
:101590008748FFF788FE4846C0B2BDE8F28FF8B52D
:1015A0000400260010218248FFF77FFE402180487A
:1015B000FFF76CFE0028F9D100200700FFB2082FCA
:1015C0001CDA300604D580217948FFF76CFE03E071
:1015D00080217748FFF769FE6D0020217448FFF7EE
:1015E00062FE760040217248FFF750FE2843050056
:1015F00020216F48FFF759FE7F1CDFE710216C4860
:10160000FFF751FE2800C0B2F2BD2DE9F0470400FB
:101610000D0016005FF00009200666D5600637D57C
:10162000002080461FFA88F8B6B2B04580F0BE8030
:10163000002082460020814600200700BFB2082F0C
:1016400020DA5FEA0A6004D580215948FFF72BFEB3
:1016500003E080215648FFF728FE5FEA4909202170
:101660005348FFF720FE5FEA4A0A40215048FFF73F
:101670000DFE50EA0900814620214D48FFF715FE76
:101680007F1CDBE785F800906D1C18F10108C9E7A5
:10169000002082460020814600200700BFB2082FAC
:1016A00020DA5FEA0A6004D580214148FFF7FBFD9C
:1016B00003E080213E48FFF7F8FD5FEA4909202159
:1016C0003B48FFF7F0FD5FEA4A0A40213848FFF740
:1016D000DDFD50EA0900814620213548FFF7E5FD90
:1016E0007F1CDBE785F8009060E0600634D50020C1
:1016F00080461FFA88F8B6B2B04557D2287882469D
:101700000020814600200700BFB2082F20DA5FEAE0
:101710000A6004D580212648FFF7C5FD03E080213B
:101720002348FFF7C2FD5FEA490920212048FFF75F
:10173000BAFD5FEA4A0A40211D48FFF7A7FD50EABB
:101740000900814620211A48FFF7AFFD7F1CDBE727
:101750006D1C18F10108CCE72878824600208146EC
:1017600000200700BFB2082F20DA5FEA0A6004D524
:1017700080210F48FFF797FD03E080210C48FFF719
:1017800094FD5FEA490920210948FFF78CFD5FEAD3
:101790004A0A40210648FFF779FD50EA09008146D0
:1017A00020210348FFF781FD7F1CDBE7BDE8F087C0
:1017B0000000024038B504000D0000F091FE41F633
:1017C000027000F0A6FE256000F09AFE31BD0068B0
:1017D000704750F8041B61B150F8042BD30744BF85
:1017E000A9F101039A180023091F42F8043BFAD11A
:1017F000EFE77047002200F099BE000080B501219C
:101800005FF08050FFF782FC012000F0A9FE02206B
:1018100000F0B8FE002805D0022000F0C0FE00F065
:101820003EFF3CE00021DFF85806FFF7C3FF012030
:10183000FFF759FC0020FFF756FC0120FFF79AFB49
:101840004920FFF790FC0028FAD05FF48030FFF7C2
:1018500028FC0120FFF743FC00F021FF7F20DFF888
:1018600024164860FF20DFF81C1688600020DFF88F
:1018700014160860DFF80C0600F0A0FE0020DFF868
:10188000081608700020DFF8001648700020DFF806
:10189000F8158870DFF8F015002000F035FF4FF4E0
:1018A000807001F065F901BD2DE9F04700214FF48A
:1018B000807001F0DBF8DFF8C805FFF788FF022829
:1018C00002D0032833D093E1DFF8C005FFF77FFF94
:1018D0000400DFF8BC05FFF77AFF0500DFF8B40568
:1018E000FFF775FF060000F079FAB0420FD2B4425C
:1018F0000DD3B5420BD30321DFF88405FFF75AFF60
:10190000DFF89005FFF763FF00F03BFA75E1AC42AA
:1019100006D2DFF87805FFF75AFF00F032FA05E04B
:10192000DFF86C05FFF753FF00F02BFA65E1DFF8F5
:101930006805FFF74CFF002840F0448100F04EFAA4
:101940000700DFF85805FFF742FF874206D2DFF8AD
:101950004C05FFF73CFF00F014FA4EE1DFF84005BC
:10196000FFF735FF002801D0082700E01827DFF82F
:101970003005FFF72CFF002802D05FF0B40801E02B
:101980004FF461680221DFF8F804FFF713FFDFF876
:101990001405FFF71CFF8246DFF80805FFF717FF65
:1019A000000A81465FF0FF315FFA8AFA5FEA8A0037
:1019B0005FFA89F9802202FB0900DFF8EC24101895
:1019C000FFF7F8FE5FFA8AFA1AF10100FFB25FFA38
:1019D00089F95FFA8AFA1AF10101FFB291FBF7F176
:1019E00011EB090207235FF0FF3190FBF7FC07FBC7
:1019F0001C00800092FBF3FC03FB1C22802303FBF2
:101A00000200DFF8A4241018FFF7D4FE5FFA8AFA68
:101A10001AF10200FFB25FFA89F95FFA8AFA1AF145
:101A20000201FFB291FBF7F111EB090207235FF00E
:101A3000FF3190FBF7FC07FB1C00800092FBF3FCDE
:101A400003FB1C22802303FB0200DFF85C24101838
:101A5000FFF7B0FE5FFA8AFA1AF10300FFB25FFAED
:101A600089F95FFA8AFA1AF10301FFB291FBF7F1E3
:101A700011EB090207235FF0FF3190FBF7FC07FB36
:101A80001C00800092FBF3FC03FB1C22802303FB61
:101A90000200DFF814241018FFF78CFEDFF8EC03C7
:101AA000FFF795FE04005FFA8AFA1AF10300FFB20D
:101AB00090FBF7F0002804D15FFA8AFABAF1000F20
:101AC0001CD15FFA8AFA1AF10401FFB25FFA89F9B0
:101AD00019F101000722D1F1040391FBF7F107FB93
:101AE000013101FB084190FBF2F302FB130080225D
:101AF000DFF8B83302FB0030FFF75CFEDFF8A0032D
:101B0000FFF765FE002801D0072000E007205FFAFC
:101B100089F95FFA8AFA1AF10401FFB291FBF7F131
:101B200011EB090191FBF0F200FB12195FFA8AFA3E
:101B30001AF10400FFB290FBF7F107FB110A5FFAFC
:101B400089F95FFA8AFA5AEA0921DFF85803FFF7A0
:101B500031FE14EB8801DFF83403FFF72BFEDFF8CA
:101B60003003FFF734FE040000F038F984420FD24E
:101B7000DFF82C03FFF72BFE002802D04FF4B460EF
:101B800001E0DFF82C030119DFF80403FFF712FE70
:101B9000DFF8F802FFF71BFE0400DFF8F402FFF79E
:101BA00016FE0500AC4206D2DFF8E002FFF70FFE9A
:101BB00000F0E7F805E0DFF8D802FFF708FE00F0D4
:101BC000E0F81AE0B348FFF702FE0400B348FFF75D
:101BD000FEFD0500AC4205D2AE48FFF7F8FD00F06F
:101BE000D0F804E0AD48FFF7F2FD00F0CAF804E0D9
:101BF000A648FFF7ECFD00F0C4F80021AD48FFF760
:101C0000D9FD012000F0CBFC4FF4807000F0B0FF54
:101C100001214FF4805000F081FF01214FF48070CA
:101C200000F024FF00F0A0FCBDE8F08780B500F0D4
:101C3000D5F8401D00F0A5F800214FF4807000F0A9
:101C400015FF012000F0ABFC4FF4807000F090FF16
:101C500001214FF4805000F061FF01214FF48070AA
:101C600000F004FF00F080FC01BDF8B504003C204A
:101C7000B4FBF0F100FB1140834988704FF46160C0
:101C8000B4FBF0F100FB11403C21B0FBF1F07E49C8
:101C900048708748B4FBF0F100FB11404FF46161DC
:101CA000B0FBF1F07849087000207749C870764998
:101CB000002000F029FD7E48B4FBF0F00500ADB235
:101CC00040F26D1095FBF0F0401C042190FBF1F008
:101CD000ADB2ADB240F26D1195FBF1F140F26D1273
:101CE00002FB1151814205DBADB240F26D1095FB54
:101CF000F0F705E0ADB240F26D1095FBF0F0471E35
:101D0000BFB207F2B270642190FBF1F201FB120046
:101D10006949C87040F26D1000FB1750BFB2B91C82
:101D2000042291FBF2F1451A0B200600BFB2B81C49
:101D3000002804D06148B6B230F8160003E06048CD
:101D4000B6B230F81600ADB2854201DA761EEDE784
:101D5000701C59494870BFB2B81C002804D05748BD
:101D6000B6B230F8160003E05548B6B230F81600A7
:101D7000281A401C504988704F49002000F060FD2F
:101D8000F1BD10B504003C20B4FBF0F100FB1140A4
:101D90004C4988704FF46160B4FBF0F100FB1140D6
:101DA0003C21B0FBF1F0474948704148B4FBF0F1E9
:101DB00000FB11404FF46161B0FBF1F04149087044
:101DC00000204049C8705FF000403E4948603D4AED
:101DD0004FF48071002000F0CBFD10BD38B52A49CA
:101DE000002000F004FD3449002000F09AFD324844
:101DF000C078322804DA3048C07810F5FA6503E07C
:101E00002D48C07800F26C751F48807804001E4889
:101E100040783C2101FB00441B4800784FF461618D
:101E200001FB004424488078401E214901FB004406
:101E30000420B5FBF0F101FB1051002907D01F4829
:101E40001D49497810EB410030F8020C06E01C48AF
:101E50001949497810EB410030F8020C144901FB94
:101E60000044A5F2B27040F26D11A5F2B172920871
:101E700001FB00200E4901FB0044200032BD0000A0
:101E8000080008081C010020380100200C00080888
:101E90001C0008082000080828000808240008087A
:101EA00030000808180008080401080800010808A4
:101EB000805101002C0008083C010020A8000020EF
:101EC000C0000020F400002000B587B001210120EF
:101ED000FFF70DF90420009002208DF80400012086
:101EE0008DF8060001208DF8070003208DF805000D
:101EF00000A9DFF8B405FFF777F901215FF400309E
:101F0000FFF704F90121DFF8A40500F04DFF02A856
:101F100000F026FF5FF4E13002900020ADF81000E1
:101F20000020ADF80E000020ADF80C000020ADF848
:101F300014000C20ADF8120002A9DFF8700500F0C3
:101F40008FFE0121DFF8640500F018FF072202214F
:101F5000DFF85405FFF7AFF900F011F8CC2000F0DE
:101F6000ADFA4E2000F0AAFA4B2000F0A7FA462066
:101F700000F0A4FA7F2000F0A1FA07B000BD30B550
:101F800085B000240021DFF8240500F0F7FEDFF81B
:101F90001C0500F01DFE0121DFF8100500F004FF14
:101FA00000A800F0DDFE4FF4165000900020ADF8C0
:101FB00008000020ADF806000020ADF80400002065
:101FC000ADF80C000C20ADF80A0000A9DFF8DC0425
:101FD00000F046FE0121DFF8D40400F0CFFE2021FE
:101FE000DFF8C80400F0FDFEF021DFF8C00400F0C7
:101FF000D3FE4021DFF8B40400F0E4FE0028F8D05E
:102000002021DFF8A80400F0DDFE0028F8D0DFF87A
:102010009C0400F0C5FE05002021DFF8900400F0CC
:10202000E0FEEDB2E02D02D0EDB2C02D01D10120D5
:1020300004000021DFF8740400F0A0FEDFF86C0457
:1020400000F0C6FD0121DFF8640400F0ADFE00A839
:1020500000F086FE5FF4E13000900020ADF808004B
:102060000020ADF806000020ADF804000020ADF817
:102070000C000C20ADF80A0000A9DFF8300400F0D5
:10208000EFFD0121DFF8240400F078FE2000C0B24B
:1020900005B030BD2DE9F047B4B0002081460020E6
:1020A00080460020002100AA5FFA88F812EBC802DF
:1020B000C2E90001FFF763FF002805D10021DFF826
:1020C000F003FFF777FB90E0F02000F0F7F9002035
:1020D0000500EDB2402D59DA00F08AF9040000F055
:1020E00087F98246E4B25FFA8AFA544529D124A8D6
:1020F0005FFA89F919EB000010F8010CEDB2A84263
:1021000004D35FFA89F9B9F1000F07D124A85FFA67
:1021100089F909F8005019F1010912E024A85FFAC1
:1021200089F919EB000010F8010CEDB2854204D1D9
:10213000B9F101090120040003E014A8EDB2285C04
:102140000400E4B2002C03D0012000F089F902E081
:10215000002000F085F914A8EDB22C5400A85FFA15
:1021600088F810EBC800D0E90067E4B22000002135
:102170002A0000F03DFE3043394300AA5FFA88F898
:1021800012EBC802C2E900016D1CA2E718F10108B8
:102190005FFA89F9B9F1000F83D15FFA88F84146F7
:1021A000C348FFF707FB00200500EDB25FFA88F88F
:1021B00045451AD200A8EDB210EBC502D2E90001E4
:1021C000EDB2BC4810EBC500FFF7F4FA00A8EDB281
:1021D00010EBC502D2E900010100EDB2B64810EBE8
:1021E000C500FFF7E7FA6D1CDFE734B0BDE8F08704
:1021F000F0B595B00025AE48FFF7E9FA04000020DD
:102200000600F6B2E4B2A64273D2F6B2A94810EBC9
:10221000C600FFF7DCFA0700F6B2A74810EBC600CD
:10222000FFF7D5FA390000AAF6B212EBC602C2E9EE
:102230000001FFF7A4FE552000F040F900A8F6B217
:1022400010EBC602D2E90001C0B200F037F900A8D5
:10225000F6B210EBC602D2E9000180B2000AC0B2A9
:1022600000F02CF900A8F6B210EBC602D2E900018A
:10227000000CC0B200F022F900A8F6B210EBC602C2
:10228000D2E90001000EC0B200F018F900A8F6B2C1
:1022900010EBC600D0E900231800C0B200F00EF920
:1022A00000A8F6B210EBC602D2E90001282200F025
:1022B000B1FDC0B200F002F900A8F6B210EBC60200
:1022C000D2E90001302200F0A5FDC0B200F0F6F81E
:1022D00000A8F6B210EBC602D2E90001382200F0E5
:1022E00099FDC0B200F0EAF8442000F0E7F8761C4F
:1022F00087E74FF47A7000F0DDFD00200600F6B2AB
:10230000E4B2A64271D2FFF73AFE552000F0D6F8AB
:1023100000A8F6B210EBC602D2E90001C0B200F08C
:10232000CDF800A8F6B210EBC602D2E9000180B2E7
:10233000000AC0B200F0C2F800A8F6B210EBC60264
:10234000D2E90001000CC0B200F0B8F800A8F6B263
:1023500010EBC602D2E90001000EC0B200F0AEF8E8
:1023600000A8F6B210EBC600D0E900231800C0B2F6
:1023700000F0A4F800A8F6B210EBC602D2E9000102
:10238000282200F047FDC0B200F098F800A8F6B28D
:1023900010EBC602D2E90001302200F03BFDC0B2D2
:1023A00000F08CF800A8F6B210EBC602D2E90001EA
:1023B000382200F02FFDC0B200F080F8BE2000F0FF
:1023C0007DF800F039F8F6B23101D1F11001884002
:1023D0002843050000F030F8F6B23101D1F11801C0
:1023E000884028430500761C89E7280015B0F0BD19
:1023F00010B5002420212D4800F0F3FCFF212B48CC
:1024000000F0CAFC4021294800F0DCFC0028F9D08B
:102410002021264800F0D6FC0028F9D0234800F0FF
:10242000BFFCFF2801D10120040020211F4800F03B
:10243000D8FC2000C0B210BD38B500200400002038
:102440000500EDB2082D08DAFFF7D2FF002802D010
:102450000120A84004436D1CF3E72000C0B232BD48
:1024600010B504002021114800F0BBFCE4B2002CA0
:1024700001D0FF2100E0002189B20C4800F08CFC63
:1024800020210A4800F09EFC0028F9D0402107488E
:1024900000F098FC0028F9D0044800F081FC2021CD
:1024A000024800F09EFC10BD0000024000440040C5
:1024B00034000808380008083C00080838B5040053
:1024C00000200500EDB2082D08DAE4B22000284112
:1024D00010F00100FFF7C4FF6D1CF3E731BD0000F1
:1024E000DFF834000068C00709D5DFF83000DFF8F6
:1024F00030100860DFF82C00DFF824100860704707
:10250000DFF81400006850F00100DFF80C100860DC
:102510007047054908607047043C0240EFCDAB8925
:102520000C3C024005040302183C024000B500BF09
:10253000130096469446103928BFA0E80C50FAD8EC
:102540005FEA417C28BF0CC048BF40F8042BC90794
:1025500028BF20F8022B48BF00F8012B00BD000067
:10256000C0B21249086070471148006850F002007C
:102570000F4908600F48006850F004000D490860DA
:1025800030BF7047010000200B4A12680A4202D097
:102590000122100001E000221000C0B2704704497F
:1025A000096851EA8001024A1160704720000E421A
:1025B0000070004010ED00E00470004038B50400E9
:1025C0000025CA20DFF8441508605320DFF83C15C9
:1025D000086000F02DF8002802D10020050020E05E
:1025E000DFF81805006830F04000DFF810150860CB
:1025F000DFF80805006821680843DFF80015086067
:10260000A068DFF8FC140860DFF8F4040068616873
:1026100050EA0140DFF8E814086000F037F80120C4
:102620000500FF20DFF8E41408602800C0B232BDC6
:1026300081B00020009000200021DFF8D42412682F
:1026400052061ED45FF0FF32DFF8C4341A60DFF8A0
:10265000C024126812F040021100009A521C00922D
:10266000009AB2F5005F01D00029F0D0DFF8A02475
:102670001268520602D50122100004E00022100068
:1026800001E001221000C0B201B07047DFF88404FD
:10269000006830F08000DFF87C140860704781B07B
:1026A0000020009000200021CA22DFF860341A6068
:1026B0005322DFF858341A60DFF85424126832F0DD
:1026C000A002DFF84C341A60DFF84424126812F0DC
:1026D00020021100009A521C0092009AB2F5004F9D
:1026E00001D00029F0D0DFF828241268920602D524
:1026F0000122100001E000221000FF22DFF80C345C
:102700001A60C0B201B070472DE9F84304000D0013
:1027100000260027002C07D1DFF8E0030068400600
:1027200001D40020E8700BE0DFF8D0030068400619
:1027300004D5287800F041FA060001E00020E87096
:10274000002C0BD028786978090251EA0040A9785A
:102750000843E97850EA0140060018E0287800F0C4
:1027600021FA8046687800F01DFA8146A87800F0CA
:1027700019FA5FFA88F85FFA89F95FEA092151EAE4
:102780000841C0B20843E97850EA01400600CA2077
:10279000DFF8841308605320DFF87C130860FFF72C
:1027A00047FF002802D10020070018E0DFF8DC0313
:1027B0003040DFF840130860FFF768FFDFF83C03A4
:1027C0000068800609D4FFF76AFF002802D10020C4
:1027D000070004E00120070001E001200700FF20BE
:1027E000DFF8341308603800C0B2BDE8F28370B57A
:1027F00004000D000026DFF8FC020068DFF88C13EF
:1028000008400600300C10F03F002870300A10F02D
:102810007F00687016F07F00A870300C10F0400048
:10282000E870002C0BD1287800F0C7F92870687880
:1028300000F0C3F96870A87800F0BFF9A87070BD07
:102840002DE9F84304000D0000260027002C07D1D5
:102850006878C00604D5687810F0EF000A30687018
:10286000002C07D0687800F0A8F90600A87800F0DE
:10287000A4F90600002C0BD0E8786978090251EA27
:102880000040A9780843297850EA4130060018E052
:10289000E87800F087F98046687800F083F981468F
:1028A000A87800F07FF95FFA88F85FFA89F95FEAA3
:1028B000092151EA0841C0B20843297850EA413061
:1028C0000600CA20DFF8501208605320DFF84812D3
:1028D0000860FFF7ADFE002802D10020070018E0D5
:1028E000DFF8AC023040DFF810120860FFF7CEFED0
:1028F000DFF808020068800609D4FFF7D0FE002840
:1029000002D10020070004E00120070001E00120BF
:102910000700FF20DFF8001208603800C0B2BDE8F1
:10292000F28370B504000D000026DFF8CC010068CA
:10293000DFF85C1208400600300CE870300A10F036
:102940001F00687016F03F00A870700B10F00700B1
:102950002870002C0BD1E87800F02FF9E870687827
:1029600000F02BF96870A87800F027F9A87070BD06
:102970002DE9F04704000D0016000027002C0AD1B5
:10298000DFF878010068400601D40020F070B068DC
:10299000002818D017E0DFF864010068400604D56D
:1029A000307800F00AF9070001E00020F070B0680C
:1029B000002804D1307B00F000F9070003E0307BF1
:1029C00000F0FBF80700002C12D030787178090273
:1029D00051EA0040B1780843F17850EA0140317B78
:1029E00050EA0160B168084371680843070025E0B8
:1029F000307800F0D7F88146707800F0D3F882463E
:102A0000B07800F0CFF88046307B00F0CBF85FFA6A
:102A100089F95FFA8AFA5FEA0A2151EA09415FFA05
:102A200088F858EA0101F27851EA0241C0B251EA4D
:102A30000060B1680843716808430700CA20DFF8E6
:102A4000D81008605320DFF8D0100860B5F5807FFB
:102A500003D1DFF8B000076002E0DFF8AC000760E8
:102A6000FF20DFF8B4100860BDE8F08738B402003A
:102A70000020009000230020CA24DFF89C502C6026
:102A80005324DFF894502C60C9B2002909D0DFF834
:102A90006C4024681443DFF864502C60012420004B
:102AA00020E0DFF8584024689443DFF850502C6051
:102AB000DFF85C40246814EA12242300009C641CA4
:102AC0000094009CB4F5005F01D0002BF0D0DFF83B
:102AD0004040246814EA122F02D10024200001E0B3
:102AE00001242000FF24DFF830502C60C0B232BC3B
:102AF00070470000002800400428004008280040DB
:102B0000102800401C2800402028004024280040B5
:102B10000C2800400C28004024280040CA221F4BEB
:102B20001A6053221D4B1A60C9B200290ED0194AEF
:102B3000126830F004031A43164B1A60164A1268E2
:102B400010F004031A43144B1A600DE0114A126886
:102B500030F004039A430F4B1A600F4A126810F0CA
:102B600004039A430C4B1A60FF220C4B1A60704707
:102B7000C103C90B51F08001094A126812F08002AA
:102B800072EA0101064A1160704700007F7F7F00F2
:102B90003FFFFF0008280040402800402428004054
:102BA0000C2800400021C0B20A2802DB491C0A3868
:102BB000F9E750EA0110C0B270470021C0B2020923
:102BC0000A235A43110010F00F004018C0B270479A
:102BD00010B504005C4884420AD101214FF48040C2
:102BE000FEF7A3FA00214FF48040FEF79EFA36E08C
:102BF000564884420AD101215FF40030FEF7A4FA5E
:102C000000215FF40030FEF79FFA28E0504884422C
:102C10000AD101215FF48020FEF796FA00215FF4CB
:102C20008020FEF791FA1AE04A4884420AD1012135
:102C30005FF40020FEF788FA00215FF40020FEF721
:102C400083FA0CE04448844209D101215FF48010EA
:102C5000FEF77AFA00215FF48010FEF775FA10BDD6
:102C60002DE9F04385B004000D005FF00009002657
:102C700000275FF00008A8890028208A814639F4DF
:102C80004059E88850EA0909A4F81090A0898146C3
:102C9000324810EA0909A888298908436989084344
:102CA00050EA0909A4F80C90A08A814639F44079C9
:102CB000A88950EA0909A4F8149000A8FEF762F95F
:102CC0002148844202D10398060001E002980600E0
:102CD000A089000408D5192000FB06F029684900E6
:102CE000B0FBF1F0070007E0192000FB06F02968AF
:102CF0008900B0FBF1F007006420B7FBF0F00001A1
:102D000081465FEA1910642101FB10708046A0899A
:102D100000040AD55FEAC80032306421B0FBF1F04C
:102D200010F0070050EA090909E05FEA08103230A4
:102D30006421B0FBF1F010F00F0050EA0909A4F88B
:102D4000089005B0BDE8F083003801400044004021
:102D500000480040004C004000500040F3E9FFFFF5
:102D60004FF416510160002181800021C1800021B3
:102D700001810C214181002181817047C9B2002964
:102D800004D0828952F40052828104E082894DF697
:102D9000FF731A4082817047CA05D20D8280704746
:102DA0008088C005C00D7047C9B2002904D0828A4E
:102DB00052F00802828204E0828A4FF6F7731A40CA
:102DC000828270470200002089B2B1F5007F13882B
:102DD0000B4202D00123180001E000231800C0B20A
:102DE000704789B28A0589B2CA43028070470000E1
:102DF000D2B2203A22BF00FA02F1002070475242BC
:102E0000D041D2F1200291404140D0409040414019
:102E100070470000D2B2203A22BF21FA02F000210E
:102E200070472032D141D04048409140D140484085
:102E3000704700007047FEE7FEE7FEE7FEE77047D9
:102E40007047704780B502215FF0804000F0BDF808
:102E5000002817D002215FF0804000F0CFF85FF02B
:102E6000804000F0A5F8194908801848008810F53E
:102E70007A715FF0804000F090F815480088401C9F
:102E80001349088001BD1248008870470100104AAC
:102E9000128889B28A4204D30D4A1288521A10004D
:102EA00006E04FF6FF72521A094B1B889A18100061
:102EB00080B2704738B5040005480588280080B204
:102EC000FFF7E4FFA4B2A042F8D331BD40010020D7
:102ED0004201002070470000002203881A00B0F170
:102EE000804F08D0104B984205D0104B984202D02A
:102EF0000F4B984204D14FF68F731A404B881A43F8
:102F00000C4B984207D00C4B984204D04FF6FF432D
:102F10001A400B891A4302804B68C3620B880385F1
:102F20000123838270470000000400400008004035
:102F3000000C00400010004000140040C9B20029FD
:102F400004D0028852F00102028004E002884FF6A9
:102F5000FE731A400280704730B400220023048CB4
:102F60004FF6FE752C400484048C2300048B220051
:102F70004FF68F7422404FF6FC7422400C88224397
:102F80004FF6FD7423400C8923434C8823434C683F
:102F900044630283038430BC70474163704700225E
:102FA000038B1A004FF6F7731A400A4302837047E7
:102FB000406B7047D2B2002A03D083890B438381D0
:102FC00002E083898B438381704730B40200002084
:102FD00000230024158A0D402B0095890D402C00FC
:102FE0009BB2002B05D0A4B2002C02D001252800F2
:102FF00001E000252800C0B230BC704789B2CA4346
:10300000028270472DE9F043A1B001A88021FEF7AC
:10301000F1FB1C20DFF8E01608700020DFF8D8165E
:1030200048700020DFF8D01688700120DFF8C8163D
:10303000C870DFF8C40600F08BFB01210120FEF709
:1030400065F80720DFF8B41608804FF6FF70DFF848
:10305000AC164860DFF8A4165FF08040FFF73CFF35
:103060000020DFF89C1608800020DFF89416088105
:103070000120DFF88C1648804FF47A70DFF8801654
:103080004860DFF87C165FF08040FFF765FF0021A5
:103090005FF08040FFF783FF012202215FF0804054
:1030A000FFF788FF01215FF08040FFF747FF012114
:1030B0000220FEF71CF80120DFF8481608710020F6
:1030C000DFF8401688710620DFF838160860012006
:1030D000DFF830164871DFF82C16DFF82C06FEF703
:1030E00083F80621DFF82006FEF7DDF80621DFF879
:1030F0001806FEF7DAF8FEF781FBFEF7E5FEDFF8CB
:103100000C06FEF764FB002807D0022800F01381AC
:1031100040D3032800F00482EAE2FCF7EBFFFDF75E
:10312000A0F80221DFF8E005FEF7BDF8012200A9B2
:1031300042F68F70FEF7ECF89DF80000482800D0AA
:10314000FEE70421DFF8C005FEF7ADF8FDF7B2F8A1
:103150000221DFF8B405FEF7A8F8FDF78EF9FFF7B6
:1031600092FEDFF8AC150860DFF8A405006880B2B5
:10317000FFF78CFEB0F5FA7FF6DB0221DFF8880559
:10318000FEF795F8FDF77EF9FFF77DFEDFF8801575
:103190000860E9E7DFF87C05FEF719FB0400DFF8BB
:1031A0007805FEF714FB0119DFF86805FEF702FB4E
:1031B000DFF86805FEF70BFB8046DFF86005FEF7D9
:1031C00006FB000A81465FFA88F8B8F1000F23D1A8
:1031D00021005FFA89F98020DFF8442500FB0920EF
:1031E000FEF7E8FA0020040000200700DFF83405AD
:1031F000FEF7EDFAFFB287420ED221005FFA89F99D
:103200008020FFB2BA0000FB0920DFF81C2510184F
:10321000FEF7D0FA7F1CE9E74FF47A70FFF74AFE19
:10322000FEF7E6FFC000040021005FFA88F85FEABD
:1032300088005FFA89F9802202FB0900DFF8E824A0
:103240001018FEF7B7FADFF8DC04FEF7C0FA5FFAF1
:1032500088F818F10101B1FBF0F200FB12185FFAD7
:1032600088F8B8F1000F58D15FFA89F919F1010017
:10327000072190FBF1F201FB12095FFA89F95FEA7D
:103280000921DFF89804FEF795FAFCF733FFFCF705
:10329000E8FFFDF70FF8FEF7A1FD040024208DF8EC
:1032A0000700200E8DF80800200C8DF80900200A78
:1032B0008DF80A0020008DF80B00072101A8FDF70A
:1032C000B0F8FDF7DAF8FFF7DEFDDFF84414086028
:1032D000002080465FFA88F8B8F10A0F27DADFF895
:1032E0003004006880B2FFF7D1FDB0F5FA7FF1DB62
:1032F000DFF83804FEF76BFA002801D118F1010855
:103300000221DFF80404FDF7D2FFFDF7BBF8FFF759
:10331000BAFDDFF8FC130860DCE75FFA89F95FFAB1
:1033200088F858EA0921DFF8F403FEF743FA002091
:10333000FEF7BAFADCE1DFF8F803FEF748FA060018
:10334000F6B2002E01D0082100E01821DFF8D403E6
:10335000FEF730FADFF8BC03FEF739FA0400DFF8B5
:10336000D403FEF734FA0500AC4280F084800221D9
:10337000DFF89403FDF797FFDFF89803FEF727FACD
:103380000400F6B2002E01D0B42001E04FF46160D9
:103390000119DFF88003FEF70DFADFF88003FEF76E
:1033A00016FA8046DFF87403FEF711FA000A814628
:1033B0005FFA88F8B8F1000F20D121005FFA89F98F
:1033C0008020D74A00FB0920FEF7F4F90020040012
:1033D00000200700D348FEF7FAF9FFB287420DD26A
:1033E00021005FFA89F98020FFB2BA0000FB0920B2
:1033F000CD4A1018FEF7DEF97F1CEBE7FEF7F8FE6A
:10340000C000040021005FFA88F85FEA88005FFAD4
:1034100089F9802202FB0900C34A1018FEF7CAF995
:10342000F6B2002E01D0082000E018205FFA88F8DC
:1034300018F1010191FBF0F200FB12185FFA88F815
:10344000B8F1000F0DD1F6B2002E01D0072000E038
:1034500007205FFA89F919F1010191FBF0F200FBF5
:1034600012195FFA89F95FFA88F858EA0921AB481E
:10347000FEF7A0F951E0AF48FEF7A9F90400F6B253
:10348000002E02D04FF4B46000E0AB480119A94807
:10349000FEF790F9FCF72EFEFCF7E3FEFCF70AFFBF
:1034A000FEF79CFC040024208DF80700200E8DF808
:1034B0000800200C8DF80900200A8DF80A00200071
:1034C0008DF80B00072101A8FCF7ABFFFCF7D5FF37
:1034D000FFF7D9FC8E490860002080465FFA88F823
:1034E000B8F10A0F19DA8A48006880B2FFF7CEFCFB
:1034F000B0F5FA7FF2DB8D48FEF769F9002801D1BB
:1035000018F1010804218048FDF7D1FEFCF7BAFF4D
:10351000FFF7B9FC7E490860E0E7FEF7C5F9E7E090
:103520008348FEF754F906008448FEF750F904007A
:103530008348FEF74CF90500AC4280F08080FEF72E
:103540004DFC001B02287AD204216F48FDF7ABFE28
:103550007A48FEF73CF90400F6B2002E01D03C2078
:1035600000E03C2001197548FEF724F97548FEF784
:103570002EF980467348FEF72AF9000A81465FFA61
:1035800088F8B8F1000F1DD121005FFA89F9802079
:103590006D4A00FB0920FEF70DF900200400002011
:1035A0000700FFB21E2F0DDA21005FFA89F9802093
:1035B000FFB2BA0000FB0920644A1018FEF7FAF8BF
:1035C0007F1CEEE7FEF714FEC000040021005FFA46
:1035D00088F85FEA88005FFA89F9802202FB090017
:1035E0005A4A1018FEF7E6F8F6B2002E01D0032072
:1035F00000E01E205FFA88F818F1010191FBF0F25B
:1036000000FB12185FFA88F8B8F1000F0DD1F6B27E
:10361000002E01D0032000E006205FFA89F919F19D
:10362000010191FBF0F200FB12195FFA89F95FFAD0
:1036300088F858EA09214348FEF7BCF856E04048AC
:10364000FEF7C5F804003F48FEF7C1F800280AD08D
:10365000F6B2002E01D0B42001E04FF4E160011970
:103660003748FEF7A7F8FCF745FDFCF7FAFDFCF735
:1036700021FEFEF7B3FB040022208DF80700200E88
:103680008DF80800200C8DF80900200A8DF80A003A
:1036900020008DF80B00072101A8FCF7C2FEFCF703
:1036A000ECFEFFF7F0FB1A490860002080465FFA45
:1036B00088F8B8F10A0F19DA1548006880B2FFF7E8
:1036C000E5FBB0F5FA7FF2DB1848FEF780F800283A
:1036D00001D118F1010802210B48FDF7E8FDFCF7C4
:1036E000D1FEFFF7D0FB0A490860E0E7FEF7DCF8FF
:1036F000002021B0BDE8F08330010020040100204B
:1037000010010020280100200004024008000808E1
:10371000340100200C0008081000080818000808F0
:103720000001080814000808040108082C00080813
:10373000300008081C00080880510100200008081B
:1037400024000808280008080005080804050808DF
:1037500070B4002400220F23C178002923D0184917
:10376000096811F4E061D1F5E061090A0C00D4F1B7
:1037700004010A00DBB219000B002341417891409B
:103780000C00817819400C4324010E4905786C54D3
:103790000121057815F01F05A9400B4D067876111B
:1037A00045F8261009E00121057815F01F05A9400C
:1037B000064D0678761145F8261070BC704700005B
:1037C0000CED00E000E400E000E100E080E100E05A
:1037D00080B54748006850F4807045490860454806
:1037E000006845490840434908604148006843492A
:1037F00008403F4908603E48006830F480203C495A
:1038000008603C48006830F47D003A4908600020B8
:103810003B49086000F005F85FF000603949086036
:1038200001BD82B000200190002000903048006867
:1038300050F480302E4908602D48006810F40030A4
:1038400000900198401C01900098002803D1019835
:10385000B0F5A04FF0D126480068800302D50120C2
:10386000009001E000200090009801283DD12648FA
:10387000006840084000244908602348006830F090
:103880000200214908602048006830F004001E4909
:1038900008601E48006850F080501C4908604FF4D2
:1038A00000601B4908601B480068C006FBD4114833
:1038B0000068104908600F4800680E4908600D480C
:1038C00000680C4908600B480068800880000949BE
:1038D00008600848006850F0020006490860054882
:1038E000006810F00C000828F9D102B07047000001
:1038F00000380240083802400CC0FF88FEFFFEEE90
:103900000C38024008ED00E0003C02402438024040
:10391000007000400470004010B450F8041B79B1EE
:103920000268436812180830DC0744BFA9F101049B
:10393000E31852F8044B43F8044B091FF9D1ECE7A4
:1039400010BC704710B5074979441831064C7C44C7
:10395000163404E00A68081D511888470146A14240
:10396000F8D110BD080000002800000067DEFFFF4E
:1039700050000000F4000020000000009DFFFFFF49
:10398000F40000001C010000000000200000000006
:1039900000F00BF8002801D0FFF7D4FF0020C0464C
:1039A000C046FFF72FFB00F002F80120704700F03F
:1039B00001B800000746384600F002F8FBE70000B7
:1039C00080B5C046C046024A11001820ABBEFBE7D6
:1039D000260002000148804701480047D13700080F
:1039E000E5390008C046C046C046C046FFF7D0FFD4
:1039F000FFF7FEBFFFF7FEBFFFF7FEBFFFF7FEBFFB
:103A0000FFF7FEBFFFF7FEBFFFF7FEBFFFF7FEBFEA
:103A1000FFF7FEBFFFF7FEBFFFF7FEBFFFF7FEBFDA
:103A2000FFF7FEBFFFF7FEBFFFF7FEBFFFF7FEBFCA
:103A3000FFF7FEBFFFF7FEBFFFF7FEBFFFF7FEBFBA
:103A4000FFF7FEBFFFF7FEBFFFF7FEBFFFF7FEBFAA
:103A5000FFF7FEBFFFF7FEBFFFF7FEBFFFF7FEBF9A
:103A6000FFF7FEBFFFF7FEBFFFF7FEBFFFF7FEBF8A
:103A7000FFF7FEBFFFF7FEBFFFF7FEBFFFF7FEBF7A
:103A8000FFF7FEBFFFF7FEBFFFF7FEBFFFF7FEBF6A
:103A9000FFF7FEBFFFF7FEBFFFF7FEBFFFF7FEBF5A
:103AA0000000B000010006000200B0000300B000FA
:103AB00008000B000B0003000C001C001000C600E7
:103AC0001100080013000500140043001700200037
:103AD000180019001C00A9001D00CF001E000000E6
:103AE000200003002100120027000500280020000C
:103AF0002B007F002C0056002D001C002E00FF0024
:103B0000002F0000012F22000C2F6C000D2F8000D1
:103B10000E2F0000122F0000132F5F00172F0E0032
:103B2000192F03001B2F33001D2F17001F2F5000CC
:103B3000202F6E00212F1400222FAC00322F0E00F8
:103B4000342FC700362F070000001F003B005A002B
:103B500078009700B500D400F300110130014E0148
:103B600000001F003C005B0079009800B600D50003
:103B7000F400120131014F010000000001020304B2
:103B80000102030406070809030406080C101820A4
:043B90003000000001
:04000005080039E5D1
:00000001FF
